:020000041000EA
:1000000000B5324B212058609868022188439860DF
:10001000D860186158612E4B002199600221596106
:100020000121F02299502B49196001219960352056
:1000300000F044F80222904214D00621196600F024
:1000400034F8196E01211966002018661A6600F04E
:100050002CF8196E196E196E052000F02FF8012189
:100060000842F9D1002199601B49196000215960AB
:100070001A491B48016001219960EB211966A021F2
:10008000196600F012F800219960164914480160C1
:100090000121996001BC002800D000471248134993
:1000A000086003C880F30888084703B5996A0420EC
:1000B0000142FBD001200142F8D103BD02B5186610
:1000C0001866FFF7F2FF186E186E02BD00000240BE
:1000D000000000180000070000035F00212200005C
:1000E000F4000018222000A00001001008ED00E03C
:1000F00000000000000000000000000074B24E7A12
:1001000000200420F7010010CB010010CD010010E9
:10011000C9010010C9010010C9010010C901001077
:10012000C9010010C9010010C9010010CF01001061
:10013000C9010010C9010010D1010010D301001045
:10014000C1010010C1010010C1010010C101001067
:10015000C1010010C1010010C1010010C101001057
:10016000C1010010C1010010C1010010C101001047
:10017000C1010010C1010010C1010010C101001037
:10018000C1010010C1010010C1010010C101001027
:10019000C1010010C1010010C1010010C101001017
:1001A000C1010010C1010010C1010010C101001007
:1001B000C1010010C1010010C1010010C1010010F7
:1001C000EFF30580103800BE00BE00BE00BE00BECA
:1001D00000BE00BEF2EB8871D4650110F865011015
:1001E0003802001090A31AE71E481F49086006C88D
:1001F00081F3088810471D480068002801D019487D
:10020000F3E70DA40ECC002902D000F012F8F9E7B4
:100210001749184A002000E001C19142FCD116495B
:100220008847164988471649884700BEFDE701C937
:1002300001C29A42FBD37047F8650110C00000204C
:10024000CC170020047D01100000042000000420D1
:10025000047D0110001004200010042000000000A4
:10026000704700000000000008ED00E0000000D032
:10027000CC170020FC460020454C00106103001004
:10028000054C0010F8B5C04606480749091A8B10FE
:10029000C90FC91810B5491003D0044B002B00D06A
:1002A000984710BDCC170020CC170020000000009C
:1002B000054B10B5002B03D00449054800E000BFF2
:1002C000FFF7E2FF10BDC04600000000A846002076
:1002D000C4CB0010F0B5D6464F4646461B49C0B5C4
:1002E0008B69DB062DD41A4B80259C46194B802642
:1002F0009946194B102498460023184A9A466D00D7
:10030000B60016E01068002810DB1068B0420DDC63
:1003100067461068DBB23B541368002B03DD4B4685
:1003200040469B6A03601368013313608B691C426B
:1003300007D10B682B42E5D0534613608B691C42F2
:10034000F7D0E0BCBA46B146A846F0BD0040034035
:100350000422002000400540A026002018100020A4
:10036000F0B5DE4657464E464546E0B50125FA262D
:1003700089B006F055FE0021002006F0CBFC00F00D
:1003800075FA0421192000F07BFB2A00C24CC34FF0
:10039000F600C34B666527661B6804219A43C14B70
:1003A00007201A6000F06CFB2A00BF4B2664E7644C
:1003B0001B6804219A43BD4B02201A6000F060FBC9
:1003C0000421032000F05CFB00236361E3612362EE
:1003D000B74BB8496362A6616561B74CB74F20005F
:1003E00001F07EFA002302220821200001F008FB20
:1003F0000221012000F044FB0021200001F03CFB21
:100400001420AF4900F04AFC0121142000F034FC14
:100410005023A363626B183B1340AA4A1360002366
:1004200005930293A84B9946A84B9846A84B039373
:10043000A84B9B46A84B0493A84B9A46A84B019304
:10044000A84B0693A84B079301200021404205F0DA
:10045000ADFA00F037FA4B464246B86AA3491B682A
:100460001278C31A8B426BD8029BA149C31A8B42E4
:1004700000D88AE00123059959400B0005915942A3
:1004800059419C4B494219409B4B9C469B4B6144B4
:100490001B684B401B0C9A491B040B600290002AFE
:1004A00075D106980378002BCED1FF21079B490018
:1004B0001B885A1E92B28A42C6D25A1CC55C0233AD
:1004C000865CC35C8F495B435801C01A8000C0182A
:1004D0000001C01A01F0C4FD039B0400F6B21888A5
:1004E0007F3EFF21704301F0BBFD5B461E88049BED
:1004F0008619EDB218887F3DFF21684301F0B0FDF9
:100500005346019A1B881278C318B6B29BB2002AD0
:1005100000D1B3E07C487D4902681B04724012049C
:10052000120C0A60026853401B0C1B040B60784BD2
:100530001A68230453401B0C764A1B04136083E79C
:100540006E4B6F491B681B0C1B040B60002A1ED1ED
:100550005B46524601991B88097812886A4800292F
:1005600000D17EE001684B401B0468491B0C0B6006
:100570000068130443401B0C1B040B60644B654A6A
:100580001B681B0C1B0413605EE7002A89D002F075
:10059000BFFC614902F0A1FCFC21890502F0B1FC1D
:1005A000041C02F02DFD061C201C02F017FD211C6E
:1005B000051C201C02F08EFC02F022FD574902F0BF
:1005C000A0FC564902F086FC02F0FCFC039B0400F0
:1005D000188802F0A3FCFC21890502F092FC291C7A
:1005E00002F08FFC02F0BCFC5B461D88049B4519A1
:1005F000188802F093FCFC21890502F082FC311C72
:1006000002F07FFC02F0ACFC5346019A1B88127882
:10061000C318ADB29BB2002A15D03B483B490268D3
:100620001B046A401204120C0A60026853401B0C3F
:100630001B040B60364B24041B685C40240C354BB8
:1006400024041C6000E730492D040A6853401B0451
:100650002E4A1B0C13600B685D402D0C2D04156099
:10066000E8E701681B044A4012042849120C0A609A
:10067000026853401B0C1B040B607FE722490A6889
:1006800053401B04214A1B0C1360096833044B4080
:100690001B0C1B0413604AE700000540CF07000055
:1006A00050000540501005403C0005403C100540FE
:1006B0001F4E000090D00300004003400040054062
:1006C000D502001034500340A0260020F946002037
:1006D0001E100020221000202010002024100020D6
:1006E000F8460020042200201C1000203F420F008A
:1006F00020A10700000031F80000CF075C00054092
:100700005C10054001FE000020000540201005405F
:1007100048000540481005400024744900C0794451
:10072000F0B5CE46474680B53D4C3E49A5443E4ACD
:1007300002A807F035FA08206A4600233A493B4DE3
:10074000121853541000290007F058FA041E26D03E
:10075000374B384E9846384B384F994608E0384B5F
:10076000019A1A802900002007F048FA041E16D0CA
:100770003100200001AA07F085F90128EFD03900E7
:10078000200001AA07F07EF901280ED12D4B019A15
:10079000290000201A8007F031FA041EE8D12A4B04
:1007A0009D44C0BCB946B046F0BD4146200001AAF8
:1007B00007F068F9012803D1244B019A1A80D1E788
:1007C0004946200001AA07F05DF9012803D1204B1A
:1007D000019A1A80C6E720001E4901AA07F052F9C3
:1007E000012805D1019A1C4B511E8A411A70B9E7A4
:1007F00020001A4901AA07F045F9012803D1184B36
:10080000019A1A80AEE72000164901AA07F03AF9CA
:100810000128A7D1019A144B511E8A411A70A1E7F1
:10082000F4FBFFFFA82C0020FF030000C8CB001042
:10083000ECCB0010CCCB0010FCCB0010DCCB0010BC
:1008400024100020221000200C04000020100020A2
:100850001E1000200CCC0010F846002020CC001008
:100860001C10002038CC0010F946002010B50F49AC
:100870000B78EB2B0BD080220D4892010D4902F032
:1008800005FD01220C4B1A70FFF74AFF10BD0B4B00
:100890001B78552BEFD10A4B1B78AA2BEBD180226A
:1008A0000348920102F0F2FCEEE7C04600E01F10A0
:1008B000A826002000CF0010FA460020FEE11F10FD
:1008C000FFE11F10F8B5144B1A78002A22D000223D
:1008D0001A70EFF3108772B68021FF2049014003A0
:1008E0000CF016F98021FF2480250C4849010CF0FA
:1008F0000FF90B4E6403AD0380222000311901343F
:100900005200FF340CF0F4F8AC42F5D187F31088B4
:10091000FFF706FFF8BDC046FA46002000F01F00B2
:10092000A846E01FF0B5C64600B588B08C4602A9BF
:1009300098460B000E4C170024CC24C31D000D4C10
:1009400045CC45C3227860461A700B4B07220193B1
:1009500002F09CFC29000C22380002F097FC0322D4
:10096000404601A902F092FC08B080BCB846F0BD38
:1009700048CC001050CC0010312E300001207047C0
:1009800010230B60F133FF33138070470120704751
:10099000180010B50F2908D8054B49028918C91845
:1009A000029A02F073FC029810BD01204042FBE75E
:1009B000A826002001207047080010B519000F2854
:1009C0000BD8074B40028018C018029A02F05EFC58
:1009D0000122044B02981A7010BD01204042FBE72F
:1009E000A8260020FA46002010B500232022052169
:1009F00005F010FD0120404210BDC0460048704780
:100A000024EF00100048704704EF001070B5002874
:100A100023D004282CD8174B8000C558280007F095
:100A200097F9C0B2041C1F2812D8E4B2002808D0DD
:100A30000023114AE95C01331180D9B202328C42A1
:100A4000F8D8C0220134E3B25B00920013430CE0FB
:100A50001F24E4B20028EBD1F3E7064B0222196809
:100A6000054802F013FCC1239B000448038070BDBD
:100A70000020FCE728100020061D0020041D002097
:100A8000094A83009A1810B51468402254408032F5
:100A90002240064CC000A44663441A60044B9C46A6
:100AA0006044416010BDC04604C0014004D0014014
:100AB000004001400123D0228340120693629361DB
:100AC000094A83009A1811684022514080320A4036
:100AD0000649C0008C4663441A60054B9C460523BA
:100AE000604443607047C04604C0014004D00140E8
:100AF000004001408023DB051868000F7047C046A6
:100B00000FB400B5084883B004F0F2F9049B002B41
:100B100007D005A91800019104F040F8034804F03B
:100B2000E7F9012004F052F884CC001094CC0010B6
:100B300070B5EFF3108C72B60D4D2B68002BFCD006
:100B4000BFF35F8F0724CB08C618C05C01230C409D
:100B5000A3401C000440034207D118433070BFF388
:100B60005F8F2C608CF3108870BD1000FFF7C8FFFA
:100B70002C0100D0F8B54746CE46884680B5EFF345
:100B8000108C72B61C4D2C68002CFCD0BFF35F8F0C
:100B90009A4222D807210126894602E00132934277
:100BA00018D34D4637001540AF40D4080119045DF5
:100BB0002742F3D110003C430C70BFF35F8F00223B
:100BC0000D4B1A608CF3108800280EDBC0BCB946B0
:100BD000B046F8BD01204042EFE7BFF35F8F00232E
:100BE0002B608CF31088012040424346002BEDD04F
:100BF0000898FFF785FFC0462C0100D0044A107802
:100C0000431CDBB2172B00D9102313707047C0466A
:100C10003C10002010B5064B064C82B0010000933A
:100C200018221F232000FFF7A5FF02B010BDC04609
:100C300098CC0010D42100200021044B044ABFF3BB
:100C40005F8F02C39342FAD17047C046000100D0C3
:100C5000800100D0054B064A1360064A13605360BA
:100C60009360D3601361536193617047808080808B
:100C700000E400E004E400E01F2318401E3B834032
:100C8000002905D0C021044A490053501360704721
:100C9000802201498B50FAE700E100E070B50D00B9
:100CA000EFF3108672B60F4A1368002BFCD0BFF327
:100CB0005F8F0D4B10309B6884001B590B4A934289
:100CC00003D09D4201D001F09BF8074B9B681D515A
:100CD000BFF35F8FBFF35F8F0022024B1A6086F372
:100CE000108870BD240100D000ED00E0C1010010AB
:100CF000F0B557464E46DE464546E0B585B006009F
:100D000000911700EFF3108B72B66A4A1368002B3C
:100D1000FCD0BFF35F8F0025674B5D579A46002DCF
:100D200000DAA9E06B00654C01935B199B009846C3
:100D3000A146C1444B4652469B7910361370604B16
:100D4000B6009B6899590B1B2F2B33D95D4B9942E9
:100D500000D0ACE0019B42469C465B4B6544AD0035
:100D600063535A4B0232A218043B9B1A1B05584A84
:100D70005B0D651913436B80564B0121AB80FF233C
:100D8000AB71009BEF71AB604B460B4319004C4BB2
:100D90009B689951BFF35F8FBFF35F8F0022454B74
:100DA0001A608BF3108805B0F0BCBB46B246A9466A
:100DB000A046F0BD01200A008243D3798C46BB4295
:100DC00031D84546130044491B1B5B415943090D6B
:100DD0003D4B63533D4B02356519043B5B1B1B05C3
:100DE0003B4D5B0D2B43AA464D466B800425AC461C
:100DF0005546E044131F44441B1B1B055B0D1D435C
:100E00004B46997100999D8099604946DF71334B3B
:100E100001431360BBE75800C01880002018C17957
:100E2000B9422FD902000623D356002BF3DA0293DE
:100E30002B4B61460393131D9A4604235B429C4649
:100E4000E14450464B461B1A1B055B0D9C46204B4C
:100E5000957198466346404603439380019B5A1917
:100E60009200039BA418A380029B1C4AA371009BC1
:100E70002260E771A3608AE700F0C2FF00255346B5
:100E80005D574FE7908802934005131D9A4603155E
:100E900061469C464046D444634604302018181AE4
:100EA000E0230005400D1B0218430390C5E700F046
:100EB000A7FF4FE7240100D0FB4600204010002090
:100EC00000ED00E0C101001000A1FFFF7010002044
:100ED00000E0FFFF01BDFFFFAAAA00000148804714
:100EE00001BD0000F0B5DE4657464E464546E0B52A
:100EF0000C0083B0EFF3108872B6634A1368002BBE
:100F0000FCD0BFF35F8F614B61499A6803001033D7
:100F10009F00D55901938D4243D0A54254D05D4ED8
:100F2000AA1B2F2A3DD85C4B9B461B689946012380
:100F30001A009C4682404B4613401F229946634646
:100F4000024093409A4680225B4650469850BFF339
:100F50005F8FEFF305839B46002B37D0019B5B45EA
:100F600001D000F04DFF01232A009A43906884428B
:100F700008D176E04B005B189B00F3189868844218
:100F800036D01A00062151560029F3DA844254D093
:100F90004B46002B27D0C02251463F4B5200995060
:100FA00019603A4B9B68DD51BFF35F8FBFF35F8FD2
:100FB0000022354B1A6088F3108803B0F0BCBB46A2
:100FC000B246A946A046F0BD0D00EAE72A006346F6
:100FD0009A4390688442D5D1062010561300002809
:100FE0000ADA0D0031E0802351462B4AD150D8E770
:100FF00006201856002821DB4200111889007418B9
:101000008B46A1689960E179D97106216156997181
:10101000002924DBA488F11A640524155C4409190D
:1010200009051E4C490D2143998013181C4A9B0049
:101030001178F31899711070AAE713005946002926
:1010400014D1FF3191711749918015490A789A712D
:10105000154A9B1B5B415A43120D0A7098E71149D0
:10106000E2E70620105613000028C5DA0F4A10499F
:10107000D21A083A5002400D014399800D49520896
:101080000A43DA8084E7C046240100D000ED00E086
:10109000C10100104010002000E100E000E0FFFF6F
:1010A000FB46002001BDFFFFAAAA00007A10002025
:1010B00000F0FFFF00F8FFFF70B501240443EFF3D9
:1010C0000581EFF3108C72B6214A1368002BFCD017
:1010D000BFF35F8F1F4B05001F4AED1A6D416A4336
:1010E000120D1E4D8900AE6852B27658A6421CD031
:1010F0000621595691421CD012215956914222D0B4
:101100001E215956914220D02A215956032491423A
:1011100010D0134B19781A708171BFF35F8F0022C2
:101120000B4B1A608CF3108870BDAB680D4C5C5093
:10113000EFE700246100091989005B18FF2199710C
:1011400009499980E5E70124F4E70224F2E7C04663
:10115000240100D040100020AAAA000000ED00E009
:10116000FB460020C101001001BDFFFF024B9C4661
:1011700061448900016070474000003470B5114C33
:10118000114DAC420FD2FF262368002B0CD0FFF785
:1011900035FD01002000FFF7E9FFA680BFF35F8F58
:1011A0000834AC42F0D370BDFFF728FD01002000E9
:1011B000FFF7DCFF2671BFF35F8F0834AC42E3D347
:1011C000F1E7C046C4170020CC17002010B504007A
:1011D000FFF714FD01002000FFF7C8FFFF23237174
:1011E000BFF35F8F10BDC04610B504000120FFF7AC
:1011F00011FD034BC3189B002360BFF35F8F10BD2D
:10120000400000340A4B1968EFF3108072B60A6888
:10121000002AFCD0BFF35F8F1B68BFF35F8F0022F3
:101220001A6080F3108840BF002000217047C0463C
:10123000E4460020F0B5DE4657464E464546E0B54A
:1012400087B0EFF30583032201251A4095409100F2
:101250008846A946B34B03925C58B34B1D60B34B11
:1012600004934B46B24843630823E55E002D37DA0A
:10127000A3881BB2002B00DBADE0A379002B00D0CC
:10128000EEE00823E05E002820DB430062691B18C3
:10129000DB00D3189E68DD68731C00D111E1A448FF
:1012A00001004144826A0B69B71A9B1A9F4215D309
:1012B0000123026A039883401A420FD09C4800F031
:1012C000C9FA8D4202DCCCD18642CAD940BF07B0F0
:1012D000F0BCBB46B246A946A046F0BD0E61EDE7A4
:1012E00062696B0092465B19DB009A4453469E6824
:1012F000DF6800F0AFFA8F42BADC00D103E1002FC3
:1013000000DAE8E05246534652691B699346049A54
:10131000934200D1D9E052460821605E5288000411
:10132000594610439847009001910099019A0B008B
:101330001000134300D1CEE013000A00B61A9F41FB
:10134000002806DB7A4800F085FA009E019F3618D7
:101350004F4153469E60DF6000229A5E002A00DA09
:1013600086E7530099186069C900411802938B6899
:10137000C9689B46B94200DD7AE702D1B34200D981
:1013800076E708239C46A444059565462281A44639
:10139000029B2C0006E053009918C90041188D6883
:1013A000C968AB469B18DB00C318B94206DC00D104
:1013B000B3E01C000023E25E002AECDA230064465E
:1013C0009C4653461A806346059D1D80A3881BB228
:1013D000002B00DA51E72269EFF3108172B613682F
:1013E000002BFCD0BFF35F8F0123A7885B42A38053
:1013F0003FB22369BFF35F8F00221A6081F3108828
:10140000002F00DA39E72300083322009A46666984
:101410007B00DB19DB00F318996850468C460824E2
:10142000115FDD68002910DB029306E0AB4244D077
:101430000023E15E2000002906DB4C006418E40074
:101440003419E368AB42F1DD029B078000201F5E88
:101450001980002FDCDA1400A379002B00D110E7EB
:101460000023A37126000823E15E08364B1C00D13F
:101470002CE70800A246656902E03E004B1C1AD02A
:101480004B005B18DB00EF180A008C46E95E7B8896
:101490001BB2002BF1DA01235B42DC17BB60FC605E
:1014A000824205D0534631801B893B8053461A81C6
:1014B00060464B1CE4D15446E5E6A3686345B7D9C2
:1014C000C2E76B1C00D0EAE6F8E65B4658461B69AB
:1014D000984700281BD153461B8822692381EFF3CC
:1014E000108372B611680029FCD0BFF35F8F51469C
:1014F00062880A8022696580BFF35F8F00211160D6
:1015000083F31088B4E6864200D8F8E6B0E65B467E
:101510001A685B680092019307E7B34500D848E773
:101520004CE7C046C04600203C7005403512001014
:101530000040054070B52E4C2569002D04D00A21CD
:101540002C48FFF713FE70BD2B4E0321300000F036
:1015500077F9E660FFF752FB284B03229C46D02325
:1015600022701B061B6801216370254B6044A36039
:101570000F23800020610220638063694942A180BB
:1015800019800231198647311D83585218315A5239
:1015900075325C3999521832013199521832013141
:1015A0009952183201319952083518329D52023140
:1015B0001832995218320131995218320131995228
:1015C00018320131995218320131995218320131D1
:1015D00099520C4B0C49DC6001303562FFF75EFB21
:1015E00001210320FFF748FB084B1D60A7E7C04619
:1015F00088100020E44600200040054040000034F0
:10160000FFFF1000C0460020351200103860054072
:1016100070B501000469EFF3108C72B620680028E1
:10162000FCD0BFF35F8F02200D5E4C69680040194B
:10163000C00024180869002D36DB26884E80BFF3D1
:101640005F8F002606608CF31088E360638804983F
:10165000013320615B0405985B0CA26060611A1C79
:10166000002B1FD093B22804628018430A69EFF35D
:10167000108C72B61368002BFCD0BFF35F8F8B8881
:1016800023808D800B69BFF35F8F00221A608CF37B
:1016900010880B7801329A40CB6808498C46634425
:1016A0001A6070BD0122DDE7BFF35F8F0023036086
:1016B0008CF3108801204042F3E7C0463C20000034
:1016C00010B543890A1493421ADD53009B184269EE
:1016D000DB00D3180469EFF3108C72B62268002A7D
:1016E000FCD0BFF35F8F5A88090494B2090C8A4278
:1016F00008D00369BFF35F8F00221A608CF3108853
:10170000002010BD8022120214435C800123026974
:101710008371BFF35F8F002111608CF3108804493F
:1017200002788C469340C268012062441360E8E767
:101730003C200000F0B557464E46DE464546E0B533
:1017400006000F0085B0EFF3058399468B46002B0A
:1017500012D0384900204B6ABB4206D38A6ADB1B91
:10176000591E8B41B2424041184305B0F0BCBB4604
:10177000B246A946A046F0BD2F4B9A46DB68984674
:1017800053461B784046039300F064F84246039B9F
:10179000040004339B009B580D001B1A39003000D5
:1017A000001BA941894510DC0DD020BF214A002033
:1017B000536A5B45D9D3926ADB1B591E8B41B242F7
:1017C00040411843D1E78342EFD900F04BF8320093
:1017D0003B00121A8B41002B1ADB00230193174B9D
:1017E0003200009350463B00FFF712FF011E0FDD51
:1017F000104B5A6A5A451BD39B6AB34216D35046C4
:10180000FFF75EFF0B4A0020536A5B45ADD3D2E77A
:10181000084A0020536A5B45A7D30020926ADB1B6D
:10182000B24240415A1E934118439EE75A45E6D1C1
:1018300020BFE4E70040054088100020051200109A
:1018400010B5024A0248FFF773F910BDB4CC00107E
:10185000D82100200300416A0A00986A596A8A4226
:10186000FAD17047034B596A0A00986A596A914243
:10187000FAD170470040054070B504000D00174ACA
:10188000536A1900966A536A8B42FAD130001900E4
:1018900024184D41AB4216D813D0104B2A005B6A76
:1018A0009D4203D90D494B6A9342FCD3934207D121
:1018B0000A4A02E0516A994202D1916AA142F9D3DF
:1018C00070BDA642E9D9054B5B6A1C005A1CEFD0DB
:1018D000012201246442E5175242E3E7004005403B
:1018E000F8B5040006200D0000F0E2F9002844D00D
:1018F000374B3849E3185A1E93418022120494460C
:101900005B429B0D344A9B0563441360334A13606A
:1019100018000A689043FBD12D4B314AE318594215
:101920004B4180215B0049000620995200F0C0F92C
:101930002900C00000F0BCFB0130C3091ED14027C4
:1019400001226262A362266BF30722D4E36A254B6D
:101950000620E51800232B60266300F0A9F9390062
:10196000800000F0A5FB7023E26A5A400E3313405A
:101970002B601D4B23630323A364F8BD1B4A9342D2
:101980001ED900231A4A1B4F6262A362266BF3071B
:10199000DCD5194B144AE3181A60656AA36A06205D
:1019A000AD01ED1800F084F9144900F081FBAD029F
:1019B0000100280000F07CFB0021FFF75DFFC5E778
:1019C0004006800E9F011A003F180300B9E7C04689
:1019D0000080FCBF08C0004000E0004000F0004074
:1019E000E84600202C10000001030000FEFF00006C
:1019F000FFFF0000C0FF3F00303000004E0E00002F
:101A00000539013AF8B5D2004C0105001443002B0A
:101A100006D0013B5A4253419B00234302241C43FE
:101A20002E6BF30708D46E23EA6A624013400E4A15
:101A3000AA1813602E63F8BD0C4B0D4AEB181A6000
:101A40006F6AAB6A0620BF01FF1800F031F909493F
:101A500000F02EFBBF020100380000F029FB00213E
:101A6000FFF70AFFDFE7C0462C100000303000000F
:101A7000010300004E0E0000F8B5066B04000D01D6
:101A8000F30708D4E36A5D4010231D400D4BE318B3
:101A90001D602663F8BD0C4B0C4AC3181A60476AD8
:101AA000836ABF010620FF1800F002F9084900F020
:101AB000FFFABF020100380000F0FAFA0021FFF738
:101AC000DBFEDFE72C1000003030000001030000D7
:101AD0004E0E0000F8B5DE464E4657464546E0B588
:101AE0008B4605000A991800160000F0E1FA0A9BDF
:101AF0006C001F02324B64199C46A4006444636866
:101B000081469F4200D967602B1FDBB29846012BAC
:101B100030D9C02380229B01E31812011A60294B9F
:101B2000AD0059599A4600291BD17301E02622685D
:101B300053401E40802342465B01E3181E60012A89
:101B400030D9802380229B01E31812011A6053468A
:101B50004A4667605A51F0BCBB46B246A946A04609
:101B6000F8BD586900F0A4FA013043001B18033B8C
:101B7000FDD2DAE75B46012BCBD1C02303229B01C8
:101B8000E3181A60023AA3681A42FCD07301E026F7
:101B90002268AD0053401E4080230A4A5B019246F2
:101BA000E3181E605A462168514003220A401A6019
:101BB00001225B469A40A3681A42FCD0C1E7C046A6
:101BC00000800040DC210020F0B546464F46D64656
:101BD000C0B51F00344B44009C462418A400644444
:101BE000636888461600FF2B02D880235B00636081
:101BF000031FDBB29A46012B30D9C02380229B0100
:101C0000E31812011A60294B850059599946002999
:101C10001BD17301E026226853401E4080235246A8
:101C20005B01E3181E60012A30D9802380229B01CA
:101C3000E31812011A6080235B0063604B465F511A
:101C4000E0BCBA46B146A846F0BD586900F030FA8B
:101C5000013043001B18033BFDD2DAE74346012B5A
:101C6000CBD1C02303229B01E3181A60023AA36878
:101C70001A42FCD07301E0262268850053401E40C2
:101C800080230A4A5B019146E3181E6042462168A0
:101C9000514003220A401A60012342469340A26841
:101CA0001342FCD0C1E7C04600800040DC21002088
:101CB000014B8000C0587047DC210020F8B50400BB
:101CC00021481E0017000D0000F0F2F90100380055
:101CD00000F0EEF9069B36041B031E432368002B1D
:101CE00020DB1A4B1A49E3185A1E934180229201B5
:101CF00094465B421B0B174A1B0363441360164A4E
:101D000013601F000A689743FBD1144B2560E2184B
:101D10002123A06013602368002BFCDA0823E6600F
:101D20001360F8BD3F2322681340AB42D9D1A368AA
:101D30001B051B0D8342D4D1EE22E368D20213406F
:101D4000B342CED1EDE7C046001BB7000040FDBF57
:101D500008C0004000E0004000F0004004300000F7
:101D60008023024A9B000B43D362704700800540EA
:101D7000002310B50100988A1B8B984710BDC04600
:101D8000162310B50100188802331B88984710BD30
:101D9000F8B54746CE4680B50F1E18D01423994695
:101DA000043304000025012698464B461888434614
:101DB00021681B88984701C4431E9841013506409D
:101DC000AF42F2D13000C0BCB946B046F8BD0126E2
:101DD000F8E7C046AA23064A1B0113602133FF33EC
:101DE000D3600449044B19605368002BFCDA704738
:101DF0000040024000B0FA00006002407047C04658
:101E000010B50148FEF77CFED8CC001070B5074D28
:101E1000074EB54209D20024013E761BB60808CD14
:101E2000984723000134B342F9D170BD80CB001034
:101E3000BCCB0010054B064A06491A60064A074B00
:101E40001A6010000B689843FBD1704700E0004017
:101E5000BFCDFBFE08C00040FE7F3C0000F000400C
:101E6000044BDB6C002B03D18022034BD2021A609F
:101E70007047C046000011504C201150044A054BD9
:101E80001A60054A1368DB018033FBD17047C046F6
:101E9000FFFFFF0100F0004008C000404022034B5C
:101EA0009A675A671A67DA667047C04600F00140C1
:101EB00010B5FEF7C1FE10BDF8B52749274C284DD7
:101EC000641AA6103200302E00D930222800920069
:101ED00001F0DCF9BC2C3BD830202F232C196407EF
:101EE000204A801BE40F9B1B052B16D93700002CC2
:101EF00002D0B300771CEA50001B33199B00410845
:101F0000EB18C900C9181A605A6008339942FAD10F
:101F1000012303421CD09843C619B300EA50731C36
:101F20002F2E15D09B00EA50B31C2E2E10D09B00F4
:101F3000EA50F31C2D2E0BD09B00EA50331D2C2EA3
:101F400006D09B00EA50731D2B2E01D09B00EA5057
:101F5000054B9D60F8BDC04600010010C001001097
:101F600000000020C101001000ED00E0002310B5CA
:101F7000294C82B0A367FFF72DFF0122274B1A607F
:101F8000636C012BFCD10322254B1A60224A936B10
:101F9000012BFCD1013300930121224A2248043352
:101FA000FFF78CFE052301210093204A2048FFF70C
:101FB00085FE0022022104201E4BFFF705FE0022B1
:101FC000012105201C4BFFF7FFFD00220021072007
:101FD0001A4BFFF7F9FD002200210820174BFFF7ED
:101FE000F3FD8023DB000093002200210920134B26
:101FF000FFF770FD0022104B00210620FFF7E4FDE3
:102000000420FFF755FE0E4900F052F801000020B1
:10201000FFF7A6FE02B010BD008000403CB00040BB
:1020200030B00040002F685900800240008C864785
:1020300000C00240001BB70040597307006CDC026F
:1020400040420F0001480421014B1847A010002016
:10205000911D0010014B9B6818470000A010002044
:10206000124A936F9B0815D29066D166002905D05D
:10207000FFE7FFE7FFE7516F106F704704B580215E
:102080000906C2175140002800D0C8430AF038FDA5
:10209000002104BDF0B5146E556E576F166FFFF733
:1020A000E3FF1466556657671667F0BD000000D061
:1020B000114A936F9B0813D210665166002905D010
:1020C000FFE7FFE7FFE7516F106F704704B5002887
:1020D00001D00020C0430AF013FD002104BDC0461A
:1020E000F0B5146E556E576F166FFFF7E5FF146667
:1020F000556657671667F0BD000000D094464A4AFF
:10210000926F9208624601D228E0C046F0B5464E72
:10211000346E756E776F366F00F020F89446424A41
:1021200014665566576716676246F0BD94463E4A88
:10213000926F9208624601D254E0C046F0B53A4E22
:10214000346E756E776F366F00F04CF89446364AF1
:1021500014665566576716676246F0BD002B24DB90
:1021600011D000293EDA00B5C943404200D1013107
:1021700000F038F8C943404200D10131DB435242FC
:1021800000D1013300BD002AEBD1002801D1002984
:1021900005D00020C90FC90701D1C043410800B5CF
:1021A0000AF096FC0022002300BD00B500290ADBDE
:1021B000DB43524200D1013300F014F8C9434042DE
:1021C00000D1013100BDC943404200D10131DB43A0
:1021D000524200D1013300F005F8DB43524200D1F6
:1021E000013300BD002923D1002B18D1002A0CD0C7
:1021F000BC460D4F38667A6600210023FFE7FFE7F3
:10220000FFE77A6F386F67467047002801D00748AC
:10221000010000B50AF05CFC0022002300BD0200B2
:102220000B00002000217047000000D0FFFFFFFFDF
:10223000002B00D0BFE0130C28D1002AE7D080B4D7
:10224000114F39667A66FFE7FFE730B4040C7B6F05
:10225000396F1B0423433B667A66FFE7FFE7FFE71E
:10226000C04684B27B6F3D6F1B0423433B667A6696
:10227000FFE7FFE7C04600232C042D0C7A6F386F70
:1022800000196941B0BC7047000000D0F0B5944619
:102290000025140E01D112020835140F01D11201CC
:1022A0000435940F01D192000235D40F01D15200B0
:1022B0000135D40B0134254F7C66254C3C660E0C51
:1022C00093B2FFE7FFE7FFE73C6F6643360C770307
:1022D000BE467343DF0B5B04C01AB941130C734352
:1022E000DB18C91ACE086643360CB64493B2734362
:1022F0001F0F1B01C01AB941130C73431F0B1B05A1
:10230000C01AB941860D8F023E436643360C092D33
:1023100024DB520A7243801A7703460A6643360C5E
:1023200016235B1BDE40DF40BF1964466643821BF9
:102330007046043506330100D940A840C01900D3C7
:102340000131A24206D20023F0BD0000000000D0FF
:10235000FFFFFFFF121B0130F3D3F1E709277F1BBB
:10236000FE406446A2B27243801A00D20139220CA8
:102370007243130C1204821A99410B007046043503
:1023800013370100F940A840801900D30131002B18
:1023900002D1A2420AD2F0BD013000D30131121B9A
:1023A000FAD2013BF8D1A24200D2F0BD013000D3F5
:1023B0000131121BF7E7F0B51C0C00D080E00CB423
:1023C00000251C0A04D11B02160E334312020835E5
:1023D0001C0B04D11B01160F3343120104359C0B57
:1023E00004D19B00960F334392000235DC0B02D1DF
:1023F00092185B4101351C00971864410134464F27
:102400007C66464C3C660E0CFFE7FFE7FFE7C046E4
:102410003C6F6643360C7703BE4697B27743C01BCA
:1024200000D20139C01B00D201399FB27743C91BCA
:10243000C91B170C77437E04FF0B801BB941CE08E4
:102440006643360C0C2D33DBB644120B1F053A43A2
:102450001B0B97B27743C01B00D201399FB2774361
:10246000C91B170C77433E043F0C801BB941860DF6
:102470008F023E43664329277F1BFE400C3D774673
:10248000AF40BF1930BCA2B2ABB272437343801AE3
:102490009941220C7243130C1204801A99410200D4
:1024A0000B000137001BA941F9D2781E0021F0BDB5
:1024B0000C277F1BFE4077467F0BAF40FF19E0E7FC
:1024C00000245D1C07D0144F7D663966FFE7FFE7E7
:1024D000FFE7FFE73C6F95B29EB265436643401B42
:1024E000B141150C1E0C6543664336042F0C3E4368
:1024F0002D04401BB141994204D202000B00200080
:102500000021F0BD01D19042F7D3801A99410134E6
:102510009942F2D3F6E70000000000D0FFFFFFFF72
:1025200048404140484018B41B4B5B68FC4601934F
:1025300008BD04DF6328001018B4174B1B68FC4665
:10254000019308BD00DF6D2800109446134A926F76
:10255000920809D2624618B40F4BDB68FC4601931F
:1025600008BD0CDF252B00100C4AF0B5146E556E1B
:10257000576F166F6246FFF7EEFF084A14665566FE
:1025800057671667F0BD18B4034B9B68FC46019370
:1025900008BD08DFC929001050190020000000D034
:1025A000FFB550404240504059404B40594000E038
:1025B000FFB5154F4C00640D03D0BC4204D10C0391
:1025C00014D80020090D09055C00640D03D0BC423D
:1025D00004D11C030AD800221B0D1B0501264B4009
:1025E00009D44B4003D58B4200D18242FFBD9942B2
:1025F000FCD19042FFBD0B43DB1803431343F5D0DE
:10260000C9434918FFBD0000FF07000000B5FFF7F0
:10261000CFFF01D0002000BD012000BD00B5FFF7B5
:10262000C7FF804100BDC04600B5FFF7C1FF01D91B
:10263000002000BD012000BD00B5FFF7B1FF01D9AA
:10264000002000BD012000BD00B5FFF7A9FF8041BB
:1026500000BD012040054A00121804D85A00121883
:1026600001D8002070470120704700000021002899
:1026700005D17047C1174840401AFAD0C90713B5B1
:10268000064B1B6898470CBC441CA2401005120B5B
:102690000349091B09051943114310BDE0460020F9
:1026A0001F04000010B54C00620D8023D218DB001F
:1026B000D21A5B057E2A10DD9E3A13DACC17090385
:1026C000490819435242D140640001341532202A8E
:1026D00005DAD0400843604310BD002010BD084615
:1026E000604310BDC80FC018013810BD18B4044BAA
:1026F0005B6AFC46019308BD24DFD52C0010000066
:102700005019002018B4044BDB6DFC46019308BD42
:102710005CDFE12D0010000050190020C94211D3E8
:1027200000B549004908002200F018F8002904D437
:10273000002240428A41114600BD80210906002046
:1027400000BD000018B4044BDB6EFC46019308BDCD
:102750006CDFE32C001000005019002018B4044B6B
:102760009B6FFC46019308BD78DFFF2C0010000032
:102770005019002018B4044BDB6FFC46019308BDD0
:102780007CDF6D2D0010000050190020132370B560
:102790001D78012D19D014DD1F48FFF7F1FA06004E
:1027A0001E48FFF7EDFA1E4C80223100200000F099
:1027B0006DFD022D2DD01B48FFF7DAFA1A4B186079
:1027C00070BD1A4B164CA364F5E7184B144C2360EC
:1027D0006360A360E36023616361A361E3612362DB
:1027E0006362A362E36223636363A363E3632364BB
:1027F0006364A364E36423656365A365E36523669B
:102800006366A366E36623676367A367E367A364FE
:10281000D1E7064BA364CEE75344000053460000C3
:10282000501900204C330000E046002031280010F1
:1028300007B5604601880A0A0230DF2AFAD1C9B218
:10284000820804D3028840880004104300E0006836
:10285000014A5050039007BD501900200FB403BC2B
:102860000CBCF0B50124E407634000E0F0B50C0DAA
:10287000CF0F661E3605891B640503D3C94340424A
:1028800000D30131640D03D0661CF60A07D0E41BA7
:1028900000207F00791C89078912803C24031D0DCC
:1028A000DF0F6E1E36059B1B6D0503D3DB435242C3
:1028B00000D301336D0D03D06E1CF60A07D0ED1B5B
:1028C00000227F007B1C9B079B12803D2D032F1B4A
:1028D000661B58D4A446202E46DA20371400BC408C
:1028E0001D00BD40F24033412A4380185941CB0FAF
:1028F00005D0C943C0430022644250415141624661
:102900004D0D28D10D0D07D100281FD024194041AD
:102910004941013A0D0DF9D0640006D3013000D3CE
:102920000131002C01D140084000013A0BD4941C25
:10293000E40A04D112051144DB071944F0BDD9079C
:10294000204B194300E0D9070020F0BD0029DDD15C
:10295000002CDBD1F0BD0132C6074008CD0728436B
:102960004908002EE1D0D9E73C2E29DA203E403735
:102970001400BC4000D00124F24014431A00BB40B4
:102980001C43D317ACE7AC46202F08DA20360400EE
:10299000B4400D00B540F84039412843A5E73C2F2D
:1029A0000CDA203F40360400B44000D00124F84047
:1029B00004430800B1400C43C117EAE710001900B6
:1029C000002494E70000F07FF0B50C0D661E36057C
:1029D000891BE60A6405640D02D0651CED0A04D06B
:1029E000002001210905803C2403A4461C0D671E1C
:1029F0003F05DB1BE70A6405640D02D0651CED0A88
:102A000004D0002201231B05803C2403774064444A
:102A100097B484B296B27443070C7E43150C6F438F
:102A200080B26843361802D3012000043F183004F6
:102A3000350C00197D41844688B29AB250430C0C83
:102A400062431F0C7C438EB27E43921902D301264F
:102A50003604A4191604170C3618674101BC81B25C
:102A60009AB25143040C62431B0C5C4380B258433E
:102A7000121802D30120000424181004130C40186B
:102A800063412D185E410020474106BC88B293B2D5
:102A900058430C0C6343120C544389B251435B18E6
:102AA00002D301210904641819041A0C091862419F
:102AB0006D1856410020474118BCF902720D1143B0
:102AC000F0026A0D1043ED020A0D03D16D19404169
:102AD0004941013B124E9B1B7600B3420ED26D0062
:102AE00007D30130002671416646354301D14008C5
:102AF00040001B05C918E4072144F0BD0BDA01337F
:102B000006D1013004D101314F0D01D04908F2E75F
:102B1000E1070020F0BD013631050020EBE70000A1
:102B2000FF030000F0B51C0D671E3F05DB1BE70A25
:102B30006405640D02D0661CF60A04D0002201234D
:102B40001B05803C2403D0252D060026F6432E6667
:102B50001E096E66CE0FF619B44649004F0D02D01D
:102B60007E1CF60A03D000200021403F3F033E1B9D
:102B7000B600B444013F7F05C91B49082E6F0136DA
:102B800076089C02950D25437543ED137543AD13EF
:102B900001356D10F603761B0CB4CC02450D2C43A9
:102BA000A2B2B3B25A43270C7B43350C6F43A4B295
:102BB0006C431B1902D3012424043F191C041D0C6F
:102BC000A4187D4124196D41009A91B2ACB26143C1
:102BD000170C7C432B0C5F4392B25A43A41802D3C8
:102BE00001221204BF182204230C52187B41019CBD
:102BF0006C431B19520ED9010A434401A01A81B239
:102C0000B2B2514303145A43360C734387B277432D
:102C1000D617D21900277E4136049B191704160CCB
:102C20007F185E417316ED18F3010026803375415D
:102C3000A90F06D16400690AE8055B0A184309D2A6
:102C40002FE00422944480337541A90AA8059B0A09
:102C5000184326D3404149412404009A019B0D00AA
:102C60005543641B4343E41A95B286B27543170C6F
:102C70007E43030C5F4392B25A43B61802D301223B
:102C80001204BF183204330C52197B4152429C414A
:102C9000002C02D40022013051414008CA071043E1
:102CA000490802B06246D7079210084BD218084B69
:102CB0009A4203D212058918C919F0BD0020002AD2
:102CC00001DC3900F0BD01331905F5E7FD03000013
:102CD000FE070000002200B5203200F010F80800C6
:102CE00000BD002200B500F00CF8CA179A4200D1CE
:102CF00000BDD8430121C907414000BD00220B158A
:102D00000AD410B5944600F0A7F81414013400DA80
:102D10000021CB17144C204700200021704762444B
:102D2000343A0CD40C2A07DA040091409040524205
:102D30002032D440214310BDD843D94310BD2032A6
:102D400007D40C469440524220321141D0402043D7
:102D500010BD0800C917203203D45242203210415E
:102D600010BD1800190010BD1F2D00104A00520D93
:102D7000144BD21A13DDFF2A1EDAD205CB0FDB0764
:102D80001A43C300400F0903490A084310435B007C
:102D900001D301D0013070474308FBD2704702D005
:102DA000C80FC00770470A0312130132F8D1420F4F
:102DB000072AF5D1012200E0FF22C80F0002801887
:102DC000C00570478003000000210A00002104E0D4
:102DD00000210A00C11704E00022002306E0C046DB
:102DE0000022CB1758405940C01A994130B5184CB1
:102DF000A21A002903D1010010D00020203A4C155E
:102E000012D104D2013A001849414C0DFAD3114CA9
:102E1000A24204D212058918DB07C91830BDD2437B
:102E2000520D00200021F5E703D4013A0018494172
:102E3000FBD50B324405C00A4D052843C90A64007E
:102E400003D0002460416141E1E7E0D34408F8E7A2
:102E500032040000FE0700000A0DCC0F531E1B05B4
:102E6000C91A520503D3C943404200D30131520D60
:102E700003D0531CDB0A07D0121B00206400611C26
:102E800089078912803A1203014BD21A7047000059
:102E9000FF03000051434343C9188C46110C83B211
:102EA0004B4310B4040C614392B280B2504362436E
:102EB0001C041B0C001910BC59411304120CC0183F
:102EC00051416144704700004840414048400E4B2A
:102ED0005B6818470C4B1B6818470C4A936F9B089C
:102EE00002D2094BDB681847F0B5146E556E576F68
:102EF000166FFFF7F6FF054A1466556657671667A3
:102F0000F0BD014B9B681847501A0020000000D00C
:102F1000491A002808D1084670470000C10FC907A8
:102F200000D54042002817D0F44603B40B4B1B6871
:102F3000984706BC81409E384042803107D20B063C
:102F400007D04900490AC0051043084360470130D3
:102F5000F8E7490A8902F5E770470000E0460020DB
:102F600041000A0E80231B067E2A0BDD9E3A0BDAF7
:102F7000C1174002400818435242D0404900013175
:102F80004843704700207047C00FC0180138704791
:102F9000C0420DD300B540004008002100F012F8F7
:102FA000002801D4404200BD8020000600BD000082
:102FB000034BDB69FC4618471CDF09320010000098
:102FC000501A0020014B5B6A18470000501A00207D
:102FD000014B1B6B18470000501A00204100090EDE
:102FE000862902DA044BDB6B1847044900B500F070
:102FF000EFF802BC8E46F5E7501A0020DB0FC940FF
:103000004100090E862902DA044B1B6C184704495B
:1030100000B500F0DDF802BC8E46F5E7501A00203E
:10302000DB0FC940132310B512481C78FEF7A8FE29
:103030000100012C0AD003DD80220F4800F026F9A0
:103040000E48FEF795FE0E4B186010BD0A4C542238
:10305000200000F01BF90B4B6365A365E365236655
:103060006366A366E36623676367A367E367236218
:10307000E361E5E753460000501A00204C3300009E
:10308000E0460020DD310010F0B546464F46D646FA
:10309000C0B5FF26C50DCB0D354088461700041C72
:1030A0001E40002A01D000231360FF2D5DD0002EAA
:1030B0005BD0002D5CD0201CFF2E51D03300013B93
:1030C000B246AB424CDC802109048946E20F64021F
:1030D000640A0C4341464E464902490A0E43B14632
:1030E000AB4247D05346ED1A002A4CD06442002D23
:1030F00058DD4B460120D9114042FEF7D9FF1D2370
:1031000000219C462A000C2D00DD0C22664663122D
:1031100094404343B61A334126004C469140013354
:103120005B105C435918341BAD1A002DEADCA14535
:103130003FDC4B46E41AA14548DCE41A0231630047
:103140004B452BDC3DD04346002B00DA4942002F93
:1031500000D03960962153462000C91AFFF738FF86
:10316000E0BCBA46B146A846F0BDFF20C005F7E76F
:103170000020F5E7B442F3DD7300002A1CD1AA4613
:103180000121E41ADFE7002DB3DC0021B44205DBA6
:10319000A41B012163009E4200DBD4D14B460131C8
:1031A000E41AD0E700214B46E4180DD54C4402390F
:1031B000C5E7002CC3DAF6E70121AA461C1B4942E9
:1031C000C1E7CB07BFD5E9E70139B8E70131B6E779
:1031D00010B50022FFF758FF10BDC04607B5604686
:1031E00001880A0A0230DF2AFAD1C9B2820804D360
:1031F000028840880004104300E00068014A5050F3
:10320000039007BD501A00200021C2158032803281
:1032100001D0024A1047002070470000CD2A00006C
:1032200010B5040003F070FF002804D0034B04190C
:103230009C4200D810BD0248FDF762FC000004204B
:10324000E4CC001010B50C0004F068FA002804D09B
:10325000034B04199C4200D810BD0248FDF750FCF6
:1032600000000420E4CC001010B503F057FF10BD9F
:1032700001480421014B1847B0100020911D001097
:10328000014B1B6818470000B0100020014B5B6821
:1032900018470000B01000209A4200D288547047AE
:1032A0007047C046F8B55746DE464E464546E0B53F
:1032B00099460A9B07009A460D9B884693460B9CAD
:1032C0009B073BD10C9B9C423DD21E1B0B941500CF
:1032D0000C005E442A004B46013521002020B847EF
:1032E000B542F7D1A0460B9C002C20D0454636199C
:1032F0005346321B013C185D29004B46B847002C51
:10330000F6D12B00350098460D9B9B070FD55B46E9
:10331000EC1A0C9BA3420AD9464698462A004B4613
:10332000310020200134B84701354445F6D3280048
:10333000F0BCBB46B246A946A046F8BD1600150033
:10334000002CD3D1E0E716001500002CCED1EEE71B
:10335000F0B54546DE4657464E46E0B585B09C463C
:1033600010AB1B78149F934698460F9C129E139D9A
:10337000BB074CD4002D42D1B44248D201233B407C
:1033800099460E9B013B9A46302304E05246013495
:103390001355A64201D9202CF8D14B46002B00D161
:1033A00083E00E9B013B99463023A54205D82EE0D1
:1033B0004A4601341355AC4229D0202CF8D1FB06E3
:1033C0000CD57B0554D4A64263D0A54261D0119B95
:1033D000102B50D0022B57D0202C32D12023019318
:1033E0000E9B5A460093039763460295FFF75AFFD8
:1033F00005B0F0BCBB46B246A946A046F0BD0123CD
:103400003B40994601233B422AD1B442B9D3FB0643
:103410001CD57B05DBD4002CD5D1119B102B5BD0A8
:10342000119B022B6BD0302301240E9A137043465C
:10343000002B10D17B073ED52B260E9A631C165508
:10344000CDE72300013430260E9AD654202CC5D067
:103450004346002BEED02D260E9A631C1655BEE770
:103460004346002B2FD0013DB44200D289E798E7B4
:10347000119B102BB2D1BB0637D5202CAED05823D0
:103480000E9A13550134A7E7202CA7D0230001344E
:1034900007E0631E012CC0D0119A102A31D0022AF5
:1034A000D1D162260E9AD65496E7FB06CED57B057F
:1034B00000D488E78BE723003E0790D520260E9A9C
:1034C000013316558BE70C233B405A1E9341ED1AEE
:1034D000B44200D255E764E7BB060ED478230E9AB7
:1034E0000224137030235370A1E7202C00D175E71C
:1034F00078230E9A135501346EE75823EFE76033B3
:10350000EDE70E9AA61E91464E44BA0602D5582201
:10351000327098E77822327095E7C04610B50028DF
:1035200000D110BD01F09AFCFBE7C046F0B557464C
:10353000DE464E464546E0B595B083460F009246BE
:1035400098461E9A1F9B10001900209EFFF781F8D5
:10355000002800D0EAE11E981F990122C54B524273
:10356000FFF75CF8002800D014E11E981F99012293
:10357000C14B5242FFF768F8002800D0E9E01E98DE
:103580001F990022BD4BFFF75FF8002800D0C8E06C
:103590001E981F990022BA4BFFF740F8002800D070
:1035A000BFE01E981F9900220023FFF737F800287C
:1035B00000D0E4E000230B93229B5B0500D4062699
:1035C0000024302307E0172106AA013452181355AE
:1035D000013E202C01D0092EF5D81E981F99FFF727
:1035E00061F8A84BF2009B181A685B680500089206
:1035F0000993FFF73FF802000B001E981F99FEF792
:1036000092FF089A099BFEF7BEFF06900791FFF70D
:103610006DF88146FFF72AF802000B00069807991B
:10362000FEF781FF0022984B06900791FFF70CF8F8
:10363000002800D10DE101239C46E1444846FFF7F4
:1036400015F802000B0008980999FEF7EDFF002815
:1036500002D0002399460135002E00D1D9E006950D
:103660004D46B94614E006AA944617230A2163443E
:10367000280001341F19FEF71BFD30313970280076
:103680000A21013EFEF714FD092D00D817E10500BF
:10369000202CE8D14F46069D20240CAE06AA172305
:1036A0009446634499465B46B34606930FE04B4607
:1036B00028000A210134E618FEF7D2FC3031280038
:1036C00031700A21FEF7CCFC051E00D1E4E0202C6D
:1036D000EDD1069B5E469B460323229A1340012BA5
:1036E00018D1219B002B15D00B9B002B00D1FDE0A6
:1036F000219B013B2193202B0CD93023219A07E0F9
:10370000172006A9013409180B55944200D3CCE0C8
:10371000202CF5D1229B01940393219B00960293C8
:1037200022E0229B52460493219B39000393584682
:103730001E9B1F9C029600930194434600F04AF999
:103740000400200015B0F0BCBB46B246A946A04616
:10375000F0BD229B5B070FD403224C4B22990192B0
:1037600003912199009302914346524639005846ED
:10377000FFF798FD0400E4E70422454BEEE71E9AAC
:103780001F9B00200021FEF7CEFE01231E901F91FB
:103790000B9311E7229B54469B0711D1219B042BCD
:1037A0000ED9219B55469C465E46043C64442A0043
:1037B0004346013539002020B047A542F7D1B34632
:1037C000344D26002B1F99465B46A3461C00320051
:1037D000E87843463900013DA04701364D45F6D112
:1037E00023005C469B46229B04349B07A9D5534685
:1037F000219AE31A9A42A4D95E4615002200434654
:1038000039002020B04753460134E31A9D42F5D8D1
:1038100097E72800FEF72EFF02000B001E981F9965
:10382000FEF781FE0022184B06900791FEF7F6FE88
:103830000CAE002800D031E7069807990022124B01
:10384000FEF702FF002800D028E7012301359D4341
:1038500024E70022069807990B4BFEF7DFFE0028AD
:1038600000D0F9E64B46002B5CD101239C46E14495
:10387000F2E6C046FFFFEFFFFFFFEF7F65CDCD41D2
:1038800065CDCDC128F100100000E03F40CD001013
:1038900038CD001048CD0010069B5E469B460323A2
:1038A000229A1340012B00D181E0202C00D131E776
:1038B0000B9B002B27D02D23335501342AE74F468D
:1038C000069D202C00D1E7E63022331907E01720AF
:1038D00006A9013409180A55202C00D1DCE6A342C0
:1038E000F5D12E220CAE0134F254D7E60C23229AE5
:1038F000134257D0219B013B2193A34200D9FCE600
:10390000202C00D106E7229B5B0703D52B233355E0
:103910000134FFE6229B1B0700D4FBE6202333552E
:103920000134F7E6DB0700D496E69EE7229B554676
:103930009B0711D1219B032B0ED9219B54469C46FA
:103940005E46033D65442200434601343900202091
:10395000B047AC42F7D1B346B9465F461C4EEC1CAB
:103960002A00B078434649460135B847013EAC428B
:10397000F6D1229BBB464F469B0700D4E1E6534657
:10398000219AE31A9A4200D8DBE65E46150022002F
:10399000434639002020B04753460134E31AAB4276
:1039A000F5D3CEE6219BA34200D9A6E6B2E6219B41
:1039B000002B00D179E70B9B002B97D0219B013B7B
:1039C00021939C4200D298E6202C00D073E7A1E618
:1039D00044CD0010F0B5DE4657464E464546E0B5AC
:1039E00099B081468B4692469846229A239B1000B6
:1039F0001900FEF72EFE002800D0CAE02298239975
:103A00000122824B5242FEF71FFE002800D0C0E088
:103A10002298239901227E4B5242FEF7FFFD002897
:103A200000D0B6E02298239900220023FEF7F6FD8D
:103A3000002800D0C9E1229B239C08930994089890
:103A400009998023269ADB001A400D928022269C39
:103A50001201144022000B94269C07000E001C4209
:103A600000D0ADE00B00034300D0D5E0002A00D029
:103A70000AE2220006332493022313400C9302230C
:103A8000134200D002E2259B042B00D20FE2043B3C
:103A90000B93002304250A930022229823990023E4
:103AA000FEF7BCFD002800D003E25A4B269A1340D3
:103AB00004930B9B0393249B0293089B099C009304
:103AC00001945946434652464846FFF72FFD0200EF
:103AD0002020269B1F27034059424B415B42184040
:103AE000531C0893594643464530C8470A9AD31792
:103AF000D4185C40D30F0A936B1E0B9308AB9C4603
:103B00000025674401E0202D0FD020000A21FEF798
:103B1000CFFA01357E193031317020000A21FEF7CD
:103B2000C7FA26000400092EEDD8052306930B9B47
:103B300059460593002304930A3303930A9B48468E
:103B4000029310AB0093089A43460195FFF700FCDF
:103B50000C9B002B2DD05346C41A259BA34228D979
:103B60004D465F4681461E00534639001A192020F3
:103B700043460134A847A642F6D8534648462599FD
:103B8000C21A01320023914200D386E10130181895
:103B90000FE0269B0493259B0393249B0293229B77
:103BA000239C009301944346524659464846FFF7EA
:103BB000BDFC19B0F0BCBB46B246A946A046F0BD5C
:103BC00001432BD10B9B2200002B00D154E7002393
:103BD0000A93249B0A9A0024934200DD85E12298EF
:103BE000239900220023FEF719FD002800D035E1BB
:103BF000269B084A02941A408023DB001343049357
:103C0000259B0393089B099CCBE7C046FFFFEF7FF2
:103C1000FFFFEFFFFFF7FFFF06232493B44B700075
:103C20009C46400D6044FEF725FDB24AB24BFEF7BC
:103C3000AAFCB24AB24BFEF77FFC3603B14B360BFF
:103C4000334304000D00380019000022AE4BFEF78C
:103C50006AFCAE4AAE4BFEF796FC02000B00200059
:103C60002900FEF769FCFEF71DFD0A90FEF702FD34
:103C7000A84AA94B04000D00FEF785FC0022A74BC3
:103C8000FEF75AFCFEF70EFDA54A0600A54B2000E4
:103C90002900FEF778FC040030000D000C96FEF7BA
:103CA000E9FCA14AA14BFEF76EFC02000B002000CC
:103CB0002900FEF738FC02000B0006000F00FEF79B
:103CC00062FC320004000D003B0030003900FEF7BA
:103CD00033FC00220E900F91954B20002900FEF737
:103CE00034FC0022934BFEF727FC02000B0020005F
:103CF0002900FEF72AFC00228F4BFEF71DFC020074
:103D00000B0020002900FEF720FC0D00802104009C
:103D100032003B000020C905FEF705FC02000B0045
:103D200020002900FEF708FC02000B000E980F99F6
:103D3000FEF70BFC0022734BFEF7FEFB7F4B0C9C47
:103D40009C46644400222305FEF71DFC06000F007C
:103D500002000B0008980999FEF760FC00280AD0C1
:103D60000A9B3000013B39000A930022714BFEF799
:103D7000ECFB06000F000A9A330063323900C62AB2
:103D800012D802222698042510400B9A0C90002A83
:103D900025D1259B042B05D9002800D0A1E0259B27
:103DA000043B0B93042541E00222269810400B9A15
:103DB0000C90002A12D1259B052B76D9002872D1B0
:103DC000259B0525053B0B9334E080221206944683
:103DD000229B0893239B6344099330E605250B43FC
:103DE00000D1F6E608980999554A564BFEF724FC8F
:103DF000002808D0089809990022534BFEF70EFCC2
:103E0000002800D0E5E6249B002B1CD00D9B002B46
:103E100019D0249B013B2493259BAB4204D90C9BD6
:103E2000002B5AD002230C9300230B930A9B002BE8
:103E300000D131E60898099932003B00FEF785FB76
:103E40000890099128E6259BAB42EDD90C9B002BED
:103E500043D000230B9302330C93E7E78020269B8B
:103E60003A4A00061A40802384460294089C099D21
:103E70002900DB0013430493259B61442200039334
:103E80000B00009201938EE60524A8E600230B9315
:103E90000A93023304250C93FEE553468C46013BFE
:103EA00063441B1A72E602230C930525C2E7042320
:103EB000EDE58020089E099F000639008446269A79
:103EC000224B6144134004930B9B32000393249BC9
:103ED00002930B0000920193F3E5259B5B1B0B9370
:103EE000A4E7022304250C93A0E79C1A013C76E684
:103EF00001FCFFFFFB799F501344D33FB3C8608B95
:103F0000288AC63F0000F03F0000F83F61436F631E
:103F1000A787D23F71A379094F930A400000E03F81
:103F20001655B5BBB16B0240EF39FAFE422EE63FA3
:103F300000002C400000244000001840FF03000057
:103F40002D431CEBE2361A3F80842E41FFF7FFFF22
:103F5000F0B5DE4657464E464546E0B5A5B01E00D4
:103F60002E9B92460C93CD4ACD4B80468B461A60D1
:103F7000002900D1EAE1002330789946002800D1D9
:103F8000ECE1C84B4C460B93C74B454657460E9346
:103F90000AE0631C984622003B005946A847444665
:103FA0003078002800D187E001362528F1D1082398
:103FB0009A46043B9946023B9846013B00229C46A8
:103FC0000D943078711C0300203BDBB2102B03D81A
:103FD0000B9C9B00E3589F460300303B89460D9C99
:103FE000092B3AD9002398462A2800D1C1E00023A2
:103FF0009A462E284BD00300683BDBB2122B1ED80A
:104000000E999B00CB589F4663460E001A43D8E793
:1040100043460E001A43D4E74B460E001A43D0E73E
:1040200010230E001A43CCE753460E001A43C8E78C
:1040300080235B001A43FF3B9C467078E1444E4668
:1040400067284FD82428A4D90300253BDBB2422B94
:104050009FD896499B00CB589F46002394461E004C
:1040600000E00131B3009B195B001E180878303E58
:104070000300303B092BF4D90123624689469C4654
:104080000023B0469A460E00E1442E28B3D13021D9
:10409000802049428C46C000024370784B468444DD
:1040A0006146092900D86CE12A2800D17AE1012370
:1040B0009C464E46E1449EE7A146A846BA46CA45FC
:1040C00003D801235B425344994653464A46594616
:1040D0000020C047200025B0F0BCBB46B246A94630
:1040E000A046F0BD0300693BDBB20D930F2B00D956
:1040F0004FE7012199408C466D49894661464B4600
:1041000019400F91634649460B4200D028E10D9BB0
:104110000A2B3AD0072B00D03BE70C9B190008C9AB
:104120008846002B00D14BE121200243914614A97F
:104130008C461F220F2162448C4651460D950C91EE
:10414000A24615000F9902E020290CD01300644606
:104150001C4020003730092C00D807380131685442
:104160001A090F2BF0D80C9B54460D9D9A460F91BF
:1041700033E10C9B02CB8846002947DB0C930123DB
:104180009C4670784E46E14431E70C9B02CB149379
:104190005346002B00D138E19C4608780B000C9068
:1041A0008C44002801D100F098FC89466146944671
:1041B00003E05A780133002A01D08B42F9D14946F5
:1041C00062465B1A0C900F93530500D520E1022341
:1041D000180010400D90134200D1CBE30D930B1B40
:1041E000B1469A465E460C9822003B003100A84733
:1041F00053460134185D0028F6D1B3464E460D9B58
:10420000002B00D0C7E1149B0C93C9E60C9301234B
:104210009C46283849420243884670784E46E1441D
:10422000E5E670786C2800D17FE180235B001A43BB
:10423000FF3B9C46E14402E780239B001A43012395
:104240009C467078E144FAE67078682800D173E102
:1042500080231A437F3B9C46E144F0E6672800D167
:1042600003E1472800D15AE1452800D15AE10492E0
:10427000072142460C9B0392073352468B43190099
:1042800002920CC92800009201930C9122003B007D
:104290005946FFF79FFB040082E6C046513F0010DD
:1042A000A42600208CEF0010D0EF00101CF00010AE
:1042B00041900000462800D1DBE0049207214246ED
:1042C0000C9B0392073352468B43190002920CC990
:1042D0002800009201930C9122003B005946FFF701
:1042E00025F904005CE6631C984622003B00594611
:1042F0002520A847444653E60C9B04330D93631CCA
:104300009946920700D422E10C9B22001878594666
:104310003B00A84743464444012B00D885E23300C4
:10432000B8462E005F4625004C469946220043467B
:10433000013439002020B047AC42F7D12C00BB46F5
:10434000350047464E460D9B0C9329E6DB4B3078F3
:10435000984600239946002800D012E60024AEE6D5
:104360006F2800D188E000D80BE31023782800D113
:10437000CFE09A430A239C4600230F930A330D9300
:1043800080E05646B1008919490001330E181878AB
:10439000303E010030390929F4D9B2461E000133FC
:1043A000994628E60C9B023602CB8A46C943504602
:1043B000C917084082460C933078731C99461AE658
:1043C00010231000984311331843814680201300B6
:1043D000C0000340024200D1A9E64B4606930823E1
:1043E00005935346049310230393002302930F9BDA
:1043F000220001931CAB009359463B002800FEF7B6
:10440000A7FF434604000C93CAE501235B42C3E6C1
:104410000F9B534501D953460F93022318001040B8
:104420000D90134200D1B7E10D93D1460B1B9A4674
:104430003300A1442E0022004D460C98B9465F4639
:104440009B4608E04B463900541CB0475346185D64
:10445000002877D022009542F4D15B46BB464F46F8
:10446000A94635004C461E00C9E680231B011A43AD
:10447000FDE620231A4320E708239C4600230F93E0
:1044800008330D9380231100DB0019401A4200D13C
:1044900016E10D239A431000802302009B001A406E
:1044A0001492184200D0C2E1802302005B001A403F
:1044B00091460C9A04320F92184200D0B7E243069C
:1044C00000D59FE1030600D419E30C9B1B880993D8
:1044D000002B00D0FCE110339843002900D1F7E114
:1044E0000023994643460593534604930D9B06903B
:1044F00003930023D2E0582808D0622867D1022312
:104500009C4600230F9302330D93BBE720231A43ED
:10451000103B9C4600230F9310330D93B2E780238A
:104520001B011A4320231A43A1E6C0239B001A4310
:10453000F31C9946B07882E5C0231A43F31C9946D0
:10454000B0787CE535005E46BB464F4657E64346AD
:10455000012B00D863E1631E43449A463300B946F9
:104560002E005F4655469B46A24622004B4601342C
:1045700039002020B047AC42F7D135005E46BB463B
:104580004F46A14654460C9B4A46187859463B0074
:104590004444A847D7E6A1460F9B984500D832E689
:1045A0004444E41A3300B8462E005F4625004C46CA
:1045B000994622004346013439002020B047AC42DE
:1045C000F7D12C00BB46350047464E461BE68023FC
:1045D0001000DB0018401A4200D10FE11121180031
:1045E0008A430D920D9A802311009B0019408C463E
:1045F0001A4269D1802311005B00194089460C9949
:1046000004310F911A4200D0CAE113005B0600D5B5
:10461000F0E013001B0600D459E20C9B00229B5EC5
:10462000D9175A184A4092B2D90F0C91002B00D1D9
:10463000F9E1100014AA944642461F2314925246F0
:104640006344A84616944D460400B946B2461F007E
:10465000159201E0202D0FD020000A21FDF728FD42
:1046600001357E193031317020000A21FDF720FD1F
:1046700026000400092EEDD8149B4F46A946454656
:104680009846159B56469A46169C0D9B06934346A4
:104690000593534604930A2303930C9B02934B46C2
:1046A00001931CAB2200009359463B002800FEF703
:1046B0004FFE0F9B04000C9372E4C046A132001021
:1046C0000C239A431000E7E607220C9B0733934321
:1046D000013294469C4462460C920CCBD90F0F9148
:1046E0001100194300D191E0D91713911291514053
:1046F000109113995940119110981199129A139B86
:10470000801A99411090119114AA002394464246B0
:104710009946149252461F336344A846B2461694F3
:104720004E46109C119DB94615921F0001E0202EA7
:1047300010D0200029000A220023FDF7F7FC0136E3
:1047400030322B00BA550D0022000400002BEED1B0
:10475000092AECD8149B1094119545469846159B50
:104760004F46B14656469A46169C0D9B06934346C5
:104770000593534604930A2303930F9B02934B46DE
:1047800001931CAB2200009359463B002800FEF722
:10479000DFFD0400FFF704FC0F9B984500D8C1E142
:1047A0008023DB000D9343460F9A1B199B1A9946F1
:1047B00033002E004D46B9465F469B460C912200C1
:1047C0004B46013439002020B047AC42F7D1434674
:1047D0000C9901330F930B7835000C935E46BB4662
:1047E0004F46002B00D10EE50D9B002B00D1F6E4C7
:1047F000002319E60C9B1B781A0015E710239A4337
:104800000D92EFE60C9B1B78099361E60023994615
:104810000028AAD1002200231092119374E70C9B68
:104820002200187859463B00A8474C468BE50C9A65
:10483000FA3BFF3B07329A430133994691444B467A
:104840000C931368526815921A4306D110329043A4
:1048500000220992002900D081E06122810600D562
:104860004122D2B20A9214AA91460A9A00210A3A27
:10487000149242461792524618925A460991B346EC
:104880001F311E000F9B4944BA4619941A95002403
:10489000674698468946159D16901B920AE030326D
:1048A000D2B24B4601341A55A8454AD0202C4AD0E2
:1048B00006000D003A00002330002900FDF736FC09
:1048C000D2B2092AEBD9149B9C466244D2B2E8E7E3
:1048D0006123820600D54123DBB20A3B0C93434699
:1048E00014A91F228C46159353466244A046B24633
:1048F0004C461797A9461700099D0D9E14901693D4
:1049000008E03033DBB201343B55B5420ED3202CE6
:104910000CD0050031002800FDF7CAFBCBB20929F5
:10492000EFD90C9A94466344DBB2ECE7159B4D46F5
:10493000A14644469846169B564614989A46179F99
:10494000D0E5B742B2D9179B57469846189B5E46AA
:104950009A461B9B09949B461698199C1A9D4346A0
:104960000593534604930D9B0690039300230293F3
:10497000099B05E70F9B984500D914E701330F9376
:104980002DE41023110099430D91692800D0BAE05D
:1049900080231000DB0018401A4200D122E61DE6F9
:1049A0000C9B1B68DA0F1100002B00D18CE0DA178A
:1049B0009818504014AA914642461F23149252461A
:1049C0004B44A046A946169704006546B2461F0010
:1049D0000C91159201E0202D0FD020000A21FDF747
:1049E00067FB01357E193031317020000A21FDF757
:1049F0005FFB26000400092EEDD8149B4446984620
:104A00000C9BAC461900159B56464D469A46169F80
:104A10000D9B0291069343460593534604930A2344
:104A2000039363463CE6002800D02EE602E60C9B8A
:104A30001B689946002B03D110339843002938D1C5
:104A40006123820600D54123DBB20A3B0C93434627
:104A50001693534614A91F228C4617932B006244C9
:104A6000A0464D46B246189799461700149C0D9ED5
:104A7000159008E03033DBB201343B55B5420ED31C
:104A8000202C0CD0050031002800FDF711FBCBB223
:104A90000929EFD90C9A94466344DBB2ECE7169BE4
:104AA000149444469846179B56464D469A46159888
:104AB000189F43460593534604930D9B069003931A
:104AC00000230293149BEBE50028A1D172E70C9B15
:104AD0001B68D9175A184A40A6E580231000DB004E
:104AE00018409C460F901A420FD00220030013403A
:104AF0000F93104219D00023A1460F934CE50C9B55
:104B00001B680993E4E40A0034E40223180010400F
:104B10000D90134200D03EE54346002B00D042E604
:104B2000FFF771FB01330F937FE463460D93F3E7C7
:104B30000EB4012230B584B007AC08CC064D01009C
:104B40000094280052420394FFF702FA04B030BCEC
:104B500008BC03B01847C046993200100FB430B5F6
:104B60000C4985B008AA08CA0D680392002D0CD024
:104B700000920122084C5242200002A9A8470120BD
:104B800005B030BC08BC04B01847180000F0B0F9FC
:104B90000020F5E7A42600201D35001010B5094AB5
:104BA0000300146884B0002C08D00122009106484C
:104BB000524203A9A047012004B010BD00F098F9AB
:104BC0000020F9E7A42600201D35001000BEFDE7F7
:104BD000094A03001068002805D00849C3188B4211
:104BE00007D81360704706480449C31810608B4209
:104BF000F7D901204042F5E71824002000000420E6
:104C0000FC46002010B5FFF7E1FFC04630B50D00AF
:104C100083B01900002A0BD0074B084C0192009377
:104C200002002B002000FFF799FF0120FFF7CEFFC5
:104C3000034B1A00F1E7C04650CD001060CD0010C4
:104C40005CCD001070B5FDF7E1F8074D074EB54299
:104C500009D20024013E761BB60808CD98472300F0
:104C60000134B342F9D170BDBCCB0010C4CB0010ED
:104C7000030010B5080011001B68984710BDC0461E
:104C8000F0B5C64600B5437D07000C001600002BAA
:104C900046D0002A17DD0B780A2B24D00023984633
:104CA000012E13D001252900635C01350A2B26D083
:104CB000B542F8D1464509DCA419013C23780D3BE7
:104CC0005A4253413B7580BCB846F0BD4346E0189C
:104CD000A419F11A013C3B68984723780D3B5A42CE
:104CE00053413B75EFE7037D002BD7D102210F48DD
:104CF0003B689847012EDFD001239846D2E7631E18
:104D00005B5C0D2BD4D0884504DA4346C91AE01801
:104D10003B689847022105483B68A8469847C7E783
:104D20000368110020009847CDE7C04678F10010D5
:104D3000F0B54546DE464E465746E0B583B091464F
:104D40001C0080460D00FCF78DFD0023304A121830
:104D50004B41002B02DA01222E4B52422E49080011
:104D60008A4607F0FDFE07006B1C03D1404602F0A7
:104D7000EFFF0500002C27D0284E294B1C68002C83
:104D800018D04B46002B21D1264B994602E02469CE
:104D9000002C0FD02368002BF9D04B461B68002B4A
:104DA00001D09C42F3D120002A004146B04724693B
:104DB000002CEFD1002F26D1280003B0F0BCBB4659
:104DC000B246A946A046F0BD174ED6E7154B994608
:104DD0000A239B4602E02469002CEBD02368002BB9
:104DE000F9D04B461B68002B01D0A342F3D12A0017
:104DF00041462000B0476B465A462000DA71D91D63
:104E00000122B047E7E7504607F05AFED4E7C04614
:104E100040420F00FFFFFF7FC4170020814C0010AD
:104E20000824002014240020714C00100A4A136842
:104E3000002B05D10CE01A001B691032002B07D0A3
:104E40008342F8D1002902D11869106019617047B6
:104E50000029FCD01060FAE708240020F0B5CE4607
:104E6000474680B583B06B460600DD1D2870FCF711
:104E7000F9FC0023194A12184B41002B02DA0122D7
:104E8000174B524217490800884607F069FE164B37
:104E900081461C68002C14D0144F02E02469002CB9
:104EA0000FD02368002BF9D03B68002B01D09C4227
:104EB000F4D1200001222900FFF7E2FE2469002C32
:104EC000EFD14B46002B05D1300003B0C0BCB94632
:104ED000B046F0BD404607F0F3FDF5E740420F0055
:104EE000FFFFFF7FC41700200824002014240020A7
:104EF00070B5040002F02CFF01230100050001221F
:104F00002000FFF715FF084B1C68002C06D06368D3
:104F1000002B05D098472469002CF8D1280070BDDB
:104F20002469002CF3D1F9E708240020F0B500290A
:104F300015DD0E4B0D271A680D4B0E4CD3185D4234
:104F40006B41451820215B001E5F0478A64207D004
:104F500093691942FCD101301460A842F5D1F0BD2B
:104F600093691942FCD11760F2E7C046F046002071
:104F70000080FCBFE8460020204B70B504000D1EE9
:104F80001E682ADD002010211D4B013C1A68936920
:104F9000194214D1013093691942FCD1136823548A
:104FA0008542F4D1002E08D050239363516B183BF7
:104FB0000B4014498C4662441360280070BD002EDB
:104FC00008D050239363516B183B0B400D498C461E
:104FD000624413600028F1D10CE0002E0AD0502268
:104FE000074B1B689A63596B183A0A4005498C466F
:104FF00063441A6003204042E0E7C046CC21002011
:10500000F046002034100000064B10B51B68002B42
:1050100006D00021044A12689163044A1068984738
:1050200010BDC046CC210020F0460020D021002039
:105030000822034B19688B691A42FCD17047C0469D
:10504000F0460020F8B51A4F1A4B3A680500D318FD
:1050500058424341184E14331C003368002D02D0CF
:10506000002B0FD0F8BD002BFCD000212000956351
:10507000FBF702FE20001149FBF734FF104B3560AF
:105080001D60EFE70E4B200019600C493560FBF7FF
:1050900005FE01212000FBF7EFFD50223B689A63DB
:1050A000596B183A0A4007498C4663441A60D9E79D
:1050B000F04600200080FCBFCC21002009500010E9
:1050C000D02100203410000070B50C4E0D001C00E3
:1050D0003060002A03DB02211000FBF7D1FC002C1A
:1050E00003DB02212000FBF7CBFC29003068FCF732
:1050F000F7FB01210248FFF799FE70BDF046002042
:10510000C010002010B588B004000D2200216846B0
:10511000FEF7B6F80D22002104A8FEF7B1F84B23E4
:105120006A466846137004A90D2207F0C1FC1521D8
:10513000082220006944FEF7A9F808B010BDC04657
:1051400070B500F0C3F90C23144DFF22AB670520A6
:105150001349FBF7CDFD134C282200212000FEF758
:105160008FF80022402180200F4BE1801A600F4B06
:1051700061830F49A360A0820A60E36107F0B0FC7D
:1051800001232B6480239B05EB649023094A0120B3
:10519000EA508022084B5202DA6470BD00001150C0
:1051A000D10600202024002084001050000110505F
:1051B0008000105010D001000020115010B50121C6
:1051C0000520FBF759FD10BD002300B583B0002179
:1051D0000348044A0193009300F0A4F903B000BD12
:1051E0003424002080001050044B1970002904D092
:1051F00080219023024A8902D1507047F546002051
:10520000002011500B785B0602D14B78052B00D0A3
:1052100070478A78014B1A60FAE7C04600001150C7
:10522000F0B5454657464E46DE460F20E0B5CC78F1
:1052300083B0A407A30F01938D784B792840840095
:10524000A4468046E0444446E400A0460A79EE09BC
:105250001B02B10013438A19314F92004244BD54DE
:1052600000255B05BA182F4C5B0D5570D380C2002A
:1052700015192D4CA0464244012E00D12A000025CC
:10528000156000280CD18919284B890079188B608A
:10529000012003B0F0BCBB46B246A946A046F0BD13
:1052A0003F223F339343224A224D92461268914651
:1052B0004C46019A654092062A43A0252D061543C7
:1052C0001C4AA8469346019AC5005D44022A15D09F
:1052D0008A19010061449200C9005218BA189460FA
:1052E00052464B441360012E00D0043542462A60DA
:1052F000114A9342CCD9FCF783FDC9E702005B0059
:1053000062444B44D200012E04D0BF185246BC6008
:105310001360EAE7BA185676D46152461360E5E79F
:1053200020240020800010508400105000011050F4
:105330001C24002000001050FF0F105010B507F083
:10534000CFFB10BDF0B50F24160014220C40CD0980
:10535000A000001969420A40C0008018114A83B0B9
:105360008018002C18D0104A611EC9008F18E20066
:105370000E4CA4460E4C6244A4466144012D09D053
:105380000432019300230093330000F0CBF8012096
:1053900003B0F0BD3900F4E70021044A012DEFD13C
:1053A000EFE7C04620240020080010508000105075
:1053B0000C001050F8B50F251423CE090D40724291
:1053C0001340AA005119C9005B184746CE469846BB
:1053D000254980B58844002D03D1022323489B1B17
:1053E0008366B3009B195219D2009B009B18CB5CBB
:1053F0000F27DA0991460122494601241F407B000C
:105400004A4013439C40FBF775FB012806D9174B14
:10541000174A1C66536E23409C42FBD1154A164B1B
:1054200094464A46FF00FB186744012A00D11F003A
:10543000002340463B6007F07BFBFBF75BFB01284A
:1054400002D90E4B5C661C660A4A0B4B9446ED0073
:10545000EB186544012E00D11D0080231B012B6039
:10546000C0BCB946B046F8BD202400200020115031
:105470000000115084001050800010500030115076
:105480000F22130010B50B400A4215D0C9099C0029
:105490008A00E41852180A489200E4001219801891
:1054A000002242700748084A8446DB009A18634489
:1054B000012902D000221A6010BD1300FAE7C0468D
:1054C00020240020840010508000105080220E4BB9
:1054D000520410B51A600D4B0D491A6010000B688C
:1054E0009843FBD18022002152010A48FDF7C8FEF3
:1054F0000922094B5A67FBF7FDFA084B1870084858
:10550000FBF772FE10BDC04600E0004000F0004016
:1055100008C000400000105000001150D8100020BA
:10552000D8460020F0B546464F46D646C0B584B0B2
:10553000040018006B469B8E9046238200230222B3
:1055400063820133A3702B4B25781B6CED091A4045
:105550009307DB0FED1A6B425D410F000026E06000
:10556000EDB2002A03D123799946002B1AD1637931
:10557000002B0BD12B0042463900200007F0E8FA3F
:1055800004B0E0BCBA46B146A846F0BD80219023E5
:10559000194A8902D15007F0EBFA0028EAD0022319
:1055A000A370EDE7E378A1689B014A46C918FDF7AF
:1055B0006DFE4A46638A26714B449BB29A466382CB
:1055C000238AE6709B1AE2689BB24A442382E26017
:1055D000002BCCD1200007F0ABFA237801A8E02201
:1055E00003715346D200002102808360467107F0A8
:1055F000A7FAC5E7000011500020115000207047A5
:105600007047C0467047C046002070470020704772
:10561000002070477047C0467047C0467047C0467C
:105620007047C0460023037000207047F8B54E460F
:105630004546DE465746E0B5304B060099461B7896
:105640000D00FF2B4CD1002951D000216C222C4899
:10565000FDF716FE00222B4B2B481A70FBF7C4FDFA
:105660002A4C2000FBF7B2FD294B1C60294C20007E
:10567000FBF7BAFD2000143801F0A0FB264B183CC4
:105680001C60264B18009846FFF7CCFF244B18608F
:105690009A4643461B78FF2B29D0224A0027002434
:1056A0009346A34225D953461B68DB19002B1ED015
:1056B0005B68002B1BD0984743461B7801345A1C6B
:1056C000E4B2D2B22437A242EBD84B4629003000D4
:1056D0001E70FFF735FD002809D03000FFF76EFD82
:1056E0000120F0BCBB46B246A946A046F8BD00204A
:1056F000F7E7A342FBD15B46DDE7C046FC10002084
:10570000901F0020F6460020C4200020881F0020A3
:10571000FC1F0020F410002000200020F446002090
:10572000C01C00202D64001030B5154C83B0E388F8
:10573000002B21D02378DB43DBB2DB09D901012226
:105740001500E4184B3423781D401A4202D0002083
:1057500003B030BD0B4B187823781343DBB22370B2
:10576000002200230095FFF7EDFD0028F0D105226F
:10577000237893432370EAE701238021DFE7C046C3
:10578000901F0020FC100020F0B53A4C110083B0AF
:10579000A260E288101C9A4200D9181C85B2A08130
:1057A000002A3DD0002D01D000293DD0E389E81A20
:1057B000061C80B240281FD82278B6B27F2A20D893
:1057C0009D4252D0002500212B4A641901252F004B
:1057D0004B3423781F401D4226D1284B187823785C
:1057E0002B43DBB2237033000097FFF7ABFD00289B
:1057F00031D0012003B0F0BD40262278B6B27F2A16
:10580000DED99D422DD01C4FB94205D000290BD0C6
:1058100032003800FDF73AFD012580213A00D4E737
:105820004C25635DDB0701D50020E3E70121134B25
:105830001878635D0B43DBB263558021009200232F
:105840000022FFF77FFD0028D3D10522635D0020F1
:1058500093436355CEE705222378002093432370BA
:10586000C8E7012580210022AFE7002500210022A2
:10587000ABE7C046901F0020C41C0020FC10002095
:10588000F8B50C0015001E00002A20D00027637810
:10589000052B1ED1E3789B079B0FB34219D1617989
:1058A000237909021943490513D00C4B21001878BC
:1058B000FFF7B6FC00280CD0A378DA09012A0AD039
:1058C000069A137023780137E418AF42DFDB01201A
:1058D00000E00020F8BD079AF3E7C046FC10002066
:1058E000F0B50F2483B008A805780C400E4864007A
:1058F0000419CE09A4194B342078C00702D5002022
:1059000003B0F0BD0127267808483E43F6B2007880
:1059100026700095FFF716FD0028F1D105222378A7
:1059200093432370EBE7C046901F0020FC1000203B
:105930000F220120044B0A405200C9099B185B1832
:105940004B331B7818407047901F002010B5094B4F
:105950000C001878FFF72EFD0F230321064A234081
:105960005B00E409D3181B194B331A780A431A70E9
:1059700010BDC046FC100020901F002010B5094B40
:105980000C001878FFF77CFD0F230321064A234003
:105990005B00E409D3181B194B331A788A431A7039
:1059A00010BDC046FC100020901F0020F0B5DE4660
:1059B00057464E464546E0B5C24B91B007931B781B
:1059C000FF2B37D0C04B10259B46C04B5F469A46F5
:1059D000D346BF4B0DAC0593BE4B0493BE4B069311
:1059E0003E68B269EFF3108172B61368002BFCD0E9
:1059F000BFF35F8F00233288F161301D210001F079
:105A0000FBF9B269F369BFF35F8F0021116083F383
:105A1000108800280ED06378082B08D85A469B00BF
:105A2000D3589F466368002B01D0A0689847013D7A
:105A3000002DD5D111B0F0BCBB46B246A946A04658
:105A4000F0BD0F232179A24E0B4098465B00F3185E
:105A50009A46CA099244504605224B300378934334
:105A600042460370002A00D1CFE053469B4A2B33B5
:105A70001B781278934200D2BCE0DBD1984EA36829
:105A800062792078B047D2E7964B1A78002ACED0B8
:105A90001A78013AD2B21A701B78DAB29446002B07
:105AA000C5D18B4E0133310033754A33F254013383
:105AB000F254237899460EAB05CB05C163466022AC
:105AC000B360F360336133781A40602A00D176E125
:105AD000402A00D14AE2DB06DB0E012B00D10AE2AC
