:020000041000EA
:1000000000B5324B212058609868022188439860DF
:10001000D860186158612E4B002199600221596106
:100020000121F02299502B49196001219960352056
:1000300000F044F80222904214D00621196600F024
:1000400034F8196E01211966002018661A6600F04E
:100050002CF8196E196E196E052000F02FF8012189
:100060000842F9D1002199601B49196000215960AB
:100070001A491B48016001219960EB211966A021F2
:10008000196600F012F800219960164914480160C1
:100090000121996001BC002800D000471248134993
:1000A000086003C880F30888084703B5996A0420EC
:1000B0000142FBD001200142F8D103BD02B5186610
:1000C0001866FFF7F2FF186E186E02BD00000240BE
:1000D000000000180000070000035F00212200005C
:1000E000F4000018222000A00001001008ED00E03C
:1000F00000000000000000000000000074B24E7A12
:1001000000200420F7010010CB010010CD010010E9
:10011000C9010010C9010010C9010010C901001077
:10012000C9010010C9010010C9010010CF01001061
:10013000C9010010C9010010D1010010D301001045
:10014000C1010010C1010010C1010010C101001067
:10015000C1010010C1010010C1010010C101001057
:10016000C1010010C1010010C1010010C101001047
:10017000C1010010C1010010C1010010C101001037
:10018000C1010010C1010010C1010010C101001027
:10019000C1010010C1010010C1010010C101001017
:1001A000C1010010C1010010C1010010C101001007
:1001B000C1010010C1010010C1010010C1010010F7
:1001C000EFF30580103800BE00BE00BE00BE00BECA
:1001D00000BE00BEF2EB8871A0290010BC290010FF
:1001E0003802001090A31AE71E481F49086006C88D
:1001F00081F3088810471D480068002801D019487D
:10020000F3E70DA40ECC002902D000F012F8F9E7B4
:100210001749184A002000E001C19142FCD116495B
:100220008847164988471649884700BEFDE701C937
:1002300001C29A42FBD37047BC290010C0000020C5
:10024000E8010020E42A001000000420000004203F
:10025000E42A001000100420001004200000000018
:10026000704700000000000008ED00E0000000D032
:10027000E8010020D005002039250010D50200102B
:1002800031250010F8B5C04606480749091A8B10F9
:10029000C90FC91810B5491003D0044B002B00D06A
:1002A000984710BDE8010020E80100200000000090
:1002B000054B10B5002B03D00449054800E000BFF2
:1002C000FFF7E2FF10BDC04600000000A0050020BF
:1002D000C0280010F0B5DE4657464E464546E0B50C
:1002E000012585B00421192000F0BCF8FF232A0065
:1002F0004E4C042123664E4B02201B6800269A4375
:100300004C4B00271A6000F0ADF80421032000F0E8
:10031000A9F800236361E3612362474B6362FA2318
:10032000DB00A36100236561444C0093019400232A
:1003300098460123039300239946414B9A46414B2B
:100340009B4658E001239C46E1444B46FF2B03DDCE
:1003500000230393FF33994600223B4B30003900C2
:1003600001F081F80022394B01F056F801F0C6F88F
:10037000374D00222C68344B60400004354C000C93
:1003800020600098019901F06EF800222F4B01F0D7
:1003900043F801F0B3F82D6800046840000C000435
:1003A00020602D49404602F00BF8804602F026F806
:1003B0002A4A2B4B04000D0001F098F8002808D0C1
:1003C000264A274B2000290001F01DF801F0AEF865
:1003D0008046052000F0CAFB404602F00FF80400FA
:1003E0000D0001F0CFF806000F002000290001F0F9
:1003F000B3F80090019148465346FF2140431C68E2
:1004000000F0A4FF5B4600046040000C000418608C
:10041000039B002B96D14B46013B01D499469BE7A9
:10042000012303930023994696E7C0460000054048
:1004300050000540501005401F4E00000000F03FE6
:100440005C0005405C10054000408F400070974004
:1004500020000540201005400AD7A33C182D445425
:10046000FB211940094A83009A1810B514684022EC
:10047000544080322240064CC000A44663441A60B7
:10048000044B9C466044416010BDC04604C001401E
:1004900004D00140004001400FB400B5084883B0CB
:1004A00002F088F9049B002B07D005A918000191E0
:1004B00002F024F8034802F07DF9012002F036F83A
:1004C000C0280010D028001070B5EFF3108C72B661
:1004D0000D4D2B68002BFCD0BFF35F8F0724CB089A
:1004E000C618C05C01230C40A3401C00044003421A
:1004F00007D118433070BFF35F8F2C608CF31088E6
:1005000070BD1000FFF7C8FF2C0100D0044A10781E
:10051000431CDBB2172B00D9102313707047C04661
:10052000980100200021044B044ABFF35F8F02C3EF
:100530009342FAD17047C046000100D0800100D03C
:10054000054B064A1360064A136053609360D360FC
:1005500013615361936170478080808000E400E004
:1005600004E400E01F2318401E3B8340002905D00F
:10057000C021044A4900535013607047802201494A
:100580008B50FAE700E100E070B50D00EFF3108644
:1005900072B60F4A1368002BFCD0BFF35F8F0D4B70
:1005A00010309B6884001B590B4A934203D09D4234
:1005B00001D000F0A1FD074B9B681D51BFF35F8F79
:1005C000BFF35F8F0022024B1A6086F3108870BD64
:1005D000240100D000ED00E0C1010010024B9C4658
:1005E00061448900016070474000003470B5114CCF
:1005F000114DAC420FD2FF262368002B0CD0FFF721
:1006000085FF01002000FFF7E9FFA680BFF35F8FA1
:100610000834AC42F0D370BDFFF778FF0100200032
:10062000FFF7DCFF2671BFF35F8F0834AC42E3D3E2
:10063000F1E7C046E0010020E80100200A4B1968FC
:10064000EFF3108072B60A68002AFCD0BFF35F8F08
:100650001B68BFF35F8F00221A6080F3108840BFD1
:10066000002000217047C046CC050020F0B5DE46D2
:1006700057464E464546E0B587B0EFF30583032263
:1006800001251A40954091008846A946B34B039234
:100690005C58B34B1D60B34B04934B46B248436365
:1006A0000823E55E002D37DAA3881BB2002B00DBA0
:1006B000ADE0A379002B00D0EEE00823E05E002837
:1006C00020DB430062691B18DB00D3189E68DD68DD
:1006D000731C00D111E1A44801004144826A0B69F6
:1006E000B71A9B1A9F4215D30123026A03988340CD
:1006F0001A420FD09C4800F047FB8D4202DCCCD15F
:100700008642CAD940BF07B0F0BCBB46B246A94634
:10071000A046F0BD0E61EDE762696B0092465B1981
:10072000DB009A4453469E68DF6800F02DFB8F4241
:10073000BADC00D103E1002F00DAE8E0524653466C
:1007400052691B699346049A934200D1D9E05246FC
:100750000821605E52880004594610439847009073
:1007600001910099019A0B001000134300D1CEE0D3
:1007700013000A00B61A9F41002806DB7A4800F0F1
:1007800003FB009E019F36184F4153469E60DF6079
:1007900000229A5E002A00DA86E753009918606901
:1007A000C900411802938B68C9689B46B94200DDB5
:1007B0007AE702D1B34200D976E708239C46A444E5
:1007C000059565462281A446029B2C0006E0530055
:1007D0009918C90041188D68C968AB469B18DB00A1
:1007E000C318B94206DC00D1B3E01C000023E25E6E
:1007F000002AECDA230064469C4653461A8063467E
:10080000059D1D80A3881BB2002B00DA51E72269E9
:10081000EFF3108172B61368002BFCD0BFF35F8F2B
:100820000123A7885B42A3803FB22369BFF35F8F98
:1008300000221A6081F31088002F00DA39E72300C4
:10084000083322009A4666697B00DB19DB00F31847
:10085000996850468C460824115FDD68002910DB3A
:10086000029306E0AB4244D00023E15E2000002961
:1008700006DB4C006418E4003419E368AB42F1DD98
:10088000029B078000201F5E1980002FDCDA140015
:10089000A379002B00D110E70023A37126000823C1
:1008A000E15E08364B1C00D12CE70800A2466569C2
:1008B00002E03E004B1C1AD04B005B18DB00EF1827
:1008C0000A008C46E95E7B881BB2002BF1DA01231B
:1008D0005B42DC17BB60FC60824205D0534631802E
:1008E0001B893B8053461A8160464B1CE4D1544619
:1008F000E5E6A3686345B7D9C2E76B1C00D0EAE61A
:10090000F8E65B4658461B69984700281BD15346BA
:100910001B8822692381EFF3108372B611680029C6
:10092000FCD0BFF35F8F514662880A8022696580E0
:10093000BFF35F8F0021116083F31088B4E6864215
:1009400000D8F8E6B0E65B461A685B68009201934F
:1009500007E7B34500D848E74CE7C046B805002094
:100960003C7005406D0600100040054070B52E4CEF
:100970002569002D04D00A212C48FFF72FFE70BDF9
:100980002B4E0321300000F0F5F9E660FFF7BEFDC5
:10099000284B03229C46D02322701B061B68012192
:1009A0006370254B6044A3600F2380002061022008
:1009B000638063694942A1801980023119864731F9
:1009C0001D83585218315A5275325C399952183277
:1009D000013199521832013199521832013199522C
:1009E000083518329D5202311832995218320131AD
:1009F00099521832013199521832013199521832F4
:100A0000013199521832013199520C4B0C49DC607A
:100A100001303562FFF7B8FD01210320FFF7A2FD89
:100A2000084B1D60A7E7C0469C010020CC050020B4
:100A30000040054040000034FFFF1000B8050020D2
:100A40006D0600103860054070B501000469EFF3D1
:100A5000108C72B620680028FCD0BFF35F8F022094
:100A60000D5E4C6968004019C00024180869002D0B
:100A700036DB26884E80BFF35F8F002606608CF33E
:100A80001088E36063880498013320615B04059853
:100A90005B0CA26060611A1C002B1FD093B228046B
:100AA000628018430A69EFF3108C72B61368002B4A
:100AB000FCD0BFF35F8F8B8823808D800B69BFF3E1
:100AC0005F8F00221A608CF310880B7801329A40F5
:100AD000CB6808498C4663441A6070BD0122DDE78B
:100AE000BFF35F8F002303608CF310880120404226
:100AF000F3E7C0463C20000010B543890A14934236
:100B00001ADD53009B184269DB00D3180469EFF328
:100B1000108C72B62268002AFCD0BFF35F8F5A880F
:100B2000090494B2090C8A4208D00369BFF35F8FAD
:100B300000221A608CF31088002010BD802212025F
:100B400014435C80012302698371BFF35F8F00212E
:100B500011608CF31088044902788C469340C26877
:100B6000012062441360E8E73C200000F0B5C6466F
:100B700000B582B0040000F00FF9FA2206000F0061
:100B8000200000230021920001F0FAFB8019794136
:100B900004000D1E02DA01242E4D64420626764220
:100BA000F71736196F41AF4214D811D000F0F4F89E
:100BB00032003B00121A8B41002B15DC002B46D073
:100BC0002000290000F0F2F802B080BCB846F0BD69
:100BD000A642EBD90026002700F0DEF832003B00E9
:100BE000121A8B41002BE9DD00F0D6F832003B00F1
:100BF000121A8B41002B0ADB00230193164B3200A3
:100C0000009316483B00FFF71FFF0130D8D00023A8
:100C10003900B0469C46124A1248536A994204D899
:100C2000966A4645CCD29942CAD10668EFF310873E
:100C300072B63368002BFCD0BFF35F8F0368BFF33D
:100C40005F8F66461E6087F3108820BFE5E7002AA5
:100C5000B6D0C9E7FFFFFF7F3D0600109C010020D2
:100C600000400540CC050020F0B557464E46DE4614
:100C70004546E0B506000F0085B0EFF305839946C1
:100C80008B46002B12D0384900204B6ABB4206D35A
:100C90008A6ADB1B591E8B41B2424041184305B0A2
:100CA000F0BCBB46B246A946A046F0BD2F4B9A46C3
:100CB000DB68984653461B784046039300F064F87F
:100CC0004246039B040004339B009B580D001B1AF3
:100CD00039003000001BA941894510DC0DD020BF30
:100CE000214A0020536A5B45D9D3926ADB1B591E07
:100CF0008B41B24240411843D1E78342EFD900F023
:100D00004BF832003B00121A8B41002B1ADB0023F8
:100D10000193174B3200009350463B00FFF794FEBF
:100D2000011E0FDD104B5A6A5A451BD39B6AB34212
:100D300016D35046FFF7E0FE0B4A0020536A5B458E
:100D4000ADD3D2E7084A0020536A5B45A7D3002001
:100D5000926ADB1BB24240415A1E934118439EE700
:100D60005A45E6D120BFE4E7004005409C01002041
:100D70003D06001010B5024A0248FFF7A5FB10BD62
:100D8000D4280010680500200300416A0A00986A10
:100D9000596A8A42FAD17047034B596A0A00986A25
:100DA000596A9142FAD1704700400540064A536A99
:100DB0009942FCD807D1044B02E05A6A914202D111
:100DC0009A6A9042F9D8704700400540F8B5DE466F
:100DD0004E4657464546E0B58B4605000A99180031
:100DE000160000F0DBFA0A9B6C001F02324B6419FC
:100DF0009C46A4006444636881469F4200D96760B2
:100E00002B1FDBB29846012B30D9C02380229B01D7
:100E1000E31812011A60294BAD0059599A4600296E
:100E20001BD17301E026226853401E4080234246B6
:100E30005B01E3181E60012A30D9802380229B01C8
:100E4000E31812011A6053464A4667605A51F0BCD3
:100E5000BB46B246A946A046F8BD586900F09EFAC6
:100E6000013043001B18033BFDD2DAE75B46012B40
:100E7000CBD1C02303229B01E3181A60023AA36876
:100E80001A42FCD07301E0262268AD0053401E4098
:100E900080230A4A5B019246E3181E605A46216885
:100EA000514003220A401A6001225B469A40A3681F
:100EB0001A42FCD0C1E7C046008000406C0500200B
:100EC000F0B546464F46D646C0B51F00344B4400E9
:100ED0009C462418A4006444636888461600FF2BCF
:100EE00002D880235B006360031FDBB29A46012BAC
:100EF00030D9C02380229B01E31812011A60294BCC
:100F000085005959994600291BD17301E0262268B2
:100F100053401E40802352465B01E3181E60012AA5
:100F200030D9802380229B01E31812011A608023AC
:100F30005B0063604B465F51E0BCBA46B146A846D1
:100F4000F0BD586900F02AFA013043001B18033B3A
:100F5000FDD2DAE74346012BCBD1C02303229B010C
:100F6000E3181A60023AA3681A42FCD07301E02623
:100F70002268850053401E4080230A4A5B01914647
:100F8000E3181E6042462168514003220A401A605D
:100F9000012342469340A2681342FCD0C1E7C046F9
:100FA000008000406C050020014B8000C058704755
:100FB0006C050020F8B5040021481E0017000D0044
:100FC00000F0ECF90100380000F0E8F9069B360467
:100FD0001B031E432368002B20DB1A4B1A49E3181E
:100FE0005A1E93418022920194465B421B0B174A82
:100FF0001B0363441360164A13601F000A6897437B
:10100000FBD1144B2560E2182123A06013602368F4
:10101000002BFCDA0823E6601360F8BD3F2322684A
:101020001340AB42D9D1A3681B051B0D8342D4D119
:10103000EE22E368D2021340B342CED1EDE7C046C0
:10104000001BB7000040FDBF08C0004000E00040AA
:1010500000F00040043000008023024A9B000B4354
:10106000D362704700800540002310B50100988AC4
:101070001B8B984710BDC046162310B50100188879
:1010800002331B88984710BDF8B54746CE4680B559
:101090000F1E18D01423994604330400002501269E
:1010A00098464B461888434621681B88984701C4D8
:1010B000431E984101350640AF42F2D13000C0BC1A
:1010C000B946B046F8BD0126F8E7C046AA23064A4D
:1010D0001B0113602133FF33D3600449044B1960B3
:1010E0005368002BFCDA70470040024000B0FA0061
:1010F000006002407047C04610B50148FFF7CCF9C8
:10110000F828001070B5074D074EB54209D20024EB
:10111000013E761BB60808CD984723000134B34240
:10112000F9D170BD80280010BC280010054B064A7C
:1011300006491A60064A074B1A6010000B6898436C
:10114000FBD1704700E00040BFCDFBFE08C000406F
:10115000FE7F3C0000F00040044BDB6C002B03D111
:101160008022034BD2021A607047C0460000115023
:101170004C201150044A054B1A60054A1368DB01E4
:101180008033FBD17047C046FFFFFF0100F00040F5
:1011900008C000404022034B9A675A671A67DA6614
:1011A0007047C04600F0014010B5FFF7BBF910BD15
:1011B000F8B52749274C284D641AA6103200302E66
:1011C00000D930222800920001F08AF9BC2C3BD8CB
:1011D00030202F232C196407204A801BE40F9B1B0F
:1011E000052B16D93700002C02D0B300771CEA502B
:1011F000001B33199B004108EB18C900C9181A607D
:101200005A6008339942FAD1012303421CD0984313
:10121000C619B300EA50731C2F2E15D09B00EA505C
:10122000B31C2E2E10D09B00EA50F31C2D2E0BD099
:101230009B00EA50331D2C2E06D09B00EA50731DF4
:101240002B2E01D09B00EA50054B9D60F8BDC04697
:1012500000010010C001001000000020C1010010BA
:1012600000ED00E0002310B5294C82B0A367FFF722
:101270002DFF0122274B1A60636C012BFCD1032246
:10128000254B1A60224A936B012BFCD1013300934A
:101290000121224A22480433FFF78CFE0523012155
:1012A0000093204A2048FFF785FE002202210420F7
:1012B0001E4BFFF705FE0022012105201C4BFFF706
:1012C000FFFD0022002107201A4BFFF7F9FD002245
:1012D00000210820174BFFF7F3FD8023DB0000936C
:1012E000002200210920134BFFF770FD0022104B54
:1012F00000210620FFF7E4FD0420FFF755FE0E490C
:1013000000F04CF801000020FFF7A6FE02B010BD6F
:10131000008000403CB0004030B00040002F6859D1
:1013200000800240008C864700C00240001BB700CE
:1013300040597307006CDC0240420F000148042151
:10134000014B1847C001002089100010124A936F0A
:101350009B0815D29066D166002905D0FFE7FFE70C
:10136000FFE7516F106F704704B580210906C2175F
:101370005140002800D0C84301F072FA002104BD9A
:10138000F0B5146E556E576F166FFFF7E3FF1466D6
:10139000556657671667F0BD000000D0114A936F7D
:1013A0009B0813D210665166002905D0FFE7FFE7BE
:1013B000FFE7516F106F704704B5002801D000207F
:1013C000C04301F04DFA002104BDC046F0B5146ED3
:1013D000556E576F166FFFF7E5FF14665566576732
:1013E0001667F0BD000000D044464D4656465F46A5
:1013F000F0B47047F0BCA046A946B246BB46704761
:1014000048404140484018B41B4B5B68FC46019380
:1014100008BD04DF3719001018B4174B1B68FC46D1
:10142000019308BD00DF411900109446134A926FE2
:10143000920809D2624618B40F4BDB68FC46019350
:1014400008BD0CDFF91B00100C4AF0B5146E556E88
:10145000576F166F6246FFF7EEFF084A146655662F
:1014600057671667F0BD18B4034B9B68FC460193A1
:1014700008BD08DF9D1A001068030020000000D09E
:10148000FFB550404240504059404B40594000E069
:10149000FFB5154F4C00640D03D0BC4204D10C03C2
:1014A00014D80020090D09055C00640D03D0BC426E
:1014B00004D11C030AD800221B0D1B0501264B403A
:1014C00009D44B4003D58B4200D18242FFBD9942E3
:1014D000FCD19042FFBD0B43DB1803431343F5D00F
:1014E000C9434918FFBD0000FF07000000B5FFF722
:1014F000C7FF01D9002000BD012000BD18B4044B76
:101500005B6AFC46019308BD24DF2D1E001000001D
:101510006803002018B4044B1B6EFC46019308BD01
:1015200060DF3B1F001000006803002018B4044B6C
:10153000DB6FFC46019308BD7CDFC51E0010000078
:1015400068030020024A034B00B500F0D3F900BD48
:10155000182D4454FB2119408A0002D3920D092A08
:1015600008DA18B4064BDB6BFC46019308BD3CDF80
:101570006F20001000B5FFF7E5FF04BC9646F0E7CA
:10158000680300208A0002D3920D092A08DA18B4F1
:10159000064B1B6CFC46019308BD40DF7F2000100A
:1015A00000B5FFF7CFFF04BC9646F0E768030020C4
:1015B000132370B51D78012D19D014DD1F48FFF7D6
:1015C0005BFD06001E48FFF757FD1E4C80223100D0
:1015D000200000F085FF022D2DD01B48FFF744FDB1
:1015E0001A4B186070BD1A4B164CA364F5E7184BE4
:1015F000144C23606360A360E36023616361A361B3
:10160000E36123626362A362E36223636363A363B0
:10161000E36323646364A364E36423656365A36590
:10162000E36523666366A366E36623676367A36770
:10163000E367A364D1E7064BA364CEE753440000FD
:1016400053460000680300204C330000C80500200A
:1016500005190010F0B545464E46DE4657461C00BB
:101660001300E0B589B0049305944D00129B904699
:1016700064006A0D81469446640D002B02D01A0066
:1016800000231360984DAC456FD0002C6DD063469D
:10169000002B00D174E002000B00AC4267D0651E45
:1016A000654564DC8022CB0F9B460B0352031B0B6A
:1016B00013431F00059B4E461B031B0B9A464346D4
:1016C000029353461A43039265455CD063461D1B43
:1016D0005B46002B00D179E032003B0000275642E8
:1016E0009F41002D00DC91E0039B01201911404235
:1016F000FFF754FE00239B461D3381469A46A846B9
:10170000079419E032009A4001923300AB40200068
:101710000093E117029A039B00F032FE009E019FA6
:101720005B46A346AB409B4443465B1B361A8F4146
:101730009846002B00DC9AE045460C2D00DD0C2578
:101740004B46BC115C4353465B1B1C412B000134D0
:101750006410203BD6D5202332005B1BDA401300F7
:101760003A00AA401A430192CFE700225F4B1000D3
:10177000190009B0F0BCBB46B246A946A046F0BD70
:1017800000220023F3E7974268DD029A039B594643
:1017900092185B41002900D087E0B61A9F410123CF
:1017A0002C009B46059B002B02DA5B465B429B4666
:1017B000129B002B01D05A461A604D4A3000121B72
:1017C0003900FFF7A7FE02000B00D0E7002D01DD76
:1017D00013008AE7029A039BBB4237DC01D1B24275
:1017E00034D802980399361A8F4132003B0092197F
:1017F0007B4100920193019B009A8B4260DC5DD09B
:10180000029991425FD001239B46CBE700239B4680
:10181000029A039BB6185F41002F58DAB6185F4151
:1018200002235B429C46E3443200029803993B004A
:1018300092197B418B4209DC34D002998A42B1D1A2
:10184000039A9342AED15B46DB07ABD5029A039B6A
:10185000B61A9F4101239C46E344A3E7029B039CE5
:10186000A74201D19E4290D802000B007FE7079C5F
:10187000029A039BBB4212DC0ED0029A039BB61A5B
:101880009F41BB422BDC27D0029A039BB61A9F4193
:1018900002239C46E344C7E7029BB342EDD9002FE5
:1018A000C2DAB5E78242C8D9D0E7921BBB411F001C
:1018B00001235B4216002C009B4673E782429FD9AE
:1018C00001239B46C2E7039A9A429CD1F8E7012381
:1018D0005B429C46E344A7E7029BB342D4D9012371
:1018E0009C46E344A0E7C046FF0700000000F07FED
:1018F0003304000010B5002482B00094FFF7AAFE64
:1019000002B010BD07B5604601880A0A0230DF2A1E
:10191000FAD1C9B2820804D3028840880004104377
:1019200000E00068014A5050039007BD68030020A2
:101930000FB403BC0CBCF0B50124E407634000E025
:10194000F0B50C0DCF0F661E3605891B640503D359
:10195000C943404200D30131640D03D0661CF60A2E
:1019600007D0E41B00207F00791C89078912803C86
:1019700024031D0DDF0F6E1E36059B1B6D0503D363
:10198000DB43524200D301336D0D03D06E1CF60AC7
:1019900007D0ED1B00227F007B1C9B079B12803D24
:1019A0002D032F1B661B58D4A446202E46DA203761
:1019B0001400BC401D00BD40F24033412A43801852
:1019C0005941CB0F05D0C943C04300226442504166
:1019D000514162464D0D28D10D0D07D100281FD071
:1019E000241940414941013A0D0DF9D0640006D354
:1019F000013000D30131002C01D140084000013AF0
:101A00000BD4941CE40A04D112051144DB071944D9
:101A1000F0BDD907204B194300E0D9070020F0BDE5
:101A20000029DDD1002CDBD1F0BD0132C607400812
:101A3000CD0728434908002EE1D0D9E73C2E29DA0A
:101A4000203E40371400BC4000D00124F240144333
:101A50001A00BB401C43D317ACE7AC46202F08DA72
:101A600020360400B4400D00B540F8403941284309
:101A7000A5E73C2F0CDA203F40360400B44000D0EC
:101A80000124F84004430800B1400C43C117EAE7C1
:101A900010001900002494E70000F07FF0B50C0D51
:101AA000661E3605891BE60A6405640D02D0651CB6
:101AB000ED0A04D0002001210905803C2403A4463E
:101AC0001C0D671E3F05DB1BE70A6405640D02D091
:101AD000651CED0A04D0002201231B05803C240371
:101AE0007740644497B484B296B27443070C7E4343
:101AF000150C6F4380B26843361802D301200004EE
:101B00003F183004350C00197D41844688B29AB2E2
:101B100050430C0C62431F0C7C438EB27E439219DF
:101B200002D301263604A4191604170C361867418F
:101B300001BC81B29AB25143040C62431B0C5C435A
:101B400080B25843121802D3012000042418100454
:101B5000130C401863412D185E410020474106BC1C
:101B600088B293B258430C0C6343120C544389B2AD
:101B700051435B1802D301210904641819041A0C9B
:101B8000091862416D1856410020474118BCF902FE
:101B9000720D1143F0026A0D1043ED020A0D03D1DC
:101BA0006D1940414941013B124E9B1B7600B342E7
:101BB0000ED26D0007D301300026714166463543D1
:101BC00001D1400840001B05C918E4072144F0BDBD
:101BD0000BDA013306D1013004D101314F0D01D0B0
:101BE0004908F2E7E1070020F0BD01363105002089
:101BF000EBE70000FF030000F0B51C0D671E3F057A
:101C0000DB1BE70A6405640D02D0661CF60A04D0EB
:101C1000002201231B05803C2403D0252D0600262D
:101C2000F6432E661E096E66CE0FF619B4464900BD
:101C30004F0D02D07E1CF60A03D000200021403F49
:101C40003F033E1BB600B444013F7F05C91B490852
:101C50002E6F013676089C02950D25437543ED13D2
:101C60007543AD1301356D10F603761B0CB4CC0231
:101C7000450D2C43A2B2B3B25A43270C7B43350C1B
:101C80006F43A4B26C431B1902D3012424043F19EF
:101C90001C041D0CA4187D4124196D41009A91B2B9
:101CA000ACB26143170C7C432B0C5F4392B25A4396
:101CB000A41802D301221204BF182204230C5218C4
:101CC0007B41019C6C431B19520ED9010A4344010C
:101CD000A01A81B2B2B2514303145A43360C734373
:101CE00087B27743D617D21900277E4136049B1955
:101CF0001704160C7F185E417316ED18F3010026C9
:101D000080337541A90F06D16400690AE8055B0AB2
:101D1000184309D22FE00422944480337541A90A64
:101D2000A8059B0A184326D3404149412404009A40
:101D3000019B0D005543641B4343E41A95B286B2E0
:101D40007543170C7E43030C5F4392B25A43B61897
:101D500002D301221204BF183204330C52197B4102
:101D600052429C41002C02D40022013051414008D3
:101D7000CA071043490802B06246D7079210084BC1
:101D8000D218084B9A4203D212058918C919F0BD1E
:101D90000020002A01DC3900F0BD01331905F5E708
:101DA000FD030000FE070000624618CA94465A462A
:101DB000002A20DB04E0624618CA944600291ADA99
:101DC000C01861415B463B415C46B4405246FA4014
:101DD000224344464D4662416B41904699462B460C
:101DE000B3403D41FC401C4352465B46A241AB41DF
:101DF00092469B467047C01AA1414B463B414C4618
:101E0000B4404246FA40224354465D4662416B412B
:101E100092469B462B46B3403D41FC401C43424604
:101E20004B46A241AB41904699467047002200B50F
:101E3000203200F010F8080000BD002200B500F0CC
:101E40000CF8CA179A4200D100BDD8430121C90736
:101E5000414000BD00220B150AD410B5944600F095
:101E6000A7F81414013400DA0021CB17144C2047D2
:101E70000020002170476244343A0CD40C2A07DA5F
:101E800004009140904052422032D440214310BD82
:101E9000D843D94310BD203207D40C469440524257
:101EA00020321141D040204310BD0800C917203214
:101EB00003D452422032104110BD1800190010BD49
:101EC000771E00104A00520D144BD21A13DDFF2A60
:101ED0001EDAD205CB0FDB071A43C300400F0903FC
:101EE000490A084310435B0001D301D00130704719
:101EF0004308FBD2704702D0C80FC00770470A03DF
:101F000012130132F8D1420F072AF5D1012200E065
:101F1000FF22C80F00028018C00570478003000030
:101F200000210A00002104E000210A00C11704E09A
:101F30000022002306E0C0460022CB17584059403B
:101F4000C01A994130B5184CA21A002903D10100DA
:101F500010D00020203A4C1512D104D2013A0018BA
:101F600049414C0DFAD3114CA24204D212058918F2
:101F7000DB07C91830BDD243520D00200021F5E720
:101F800003D4013A00184941FBD50B324405C00A7D
:101F90004D052843C90A640003D000246041614113
:101FA000E1E7E0D34408F8E732040000FE07000050
:101FB0000A0DCC0F531E1B05C91A520503D3C94382
:101FC000404200D30131520D03D0531CDB0A07D02D
:101FD000121B00206400611C89078912803A1203D9
:101FE000014BD21A70470000FF030000023225D4D3
:101FF0000C2A1CDA1125AD1A0B002B4108320735CB
:102000000600EE40904091403143F0CC63431A15F6
:1020100000235A41554356435743BF02F4127605F5
:1020200076196741ED177F19801BB94170470C2263
:102030000020C917490001310905DBE70902030E39
:10204000194300025342203208D40C001941944035
:10205000D840204300225041514170470800C91721
:10206000203B2032F1D50020002100227047F0B53E
:10207000FFF7BAF900F00EF800F030F806E0F0B51E
:10208000FFF7B2F900F006F800F046F8FFF7B2F9F2
:10209000F0BD000000B5FFF78BFF30A4FFF7A6FFEF
:1020A00000242C4D2C4ED20702D3F6436D426641DC
:1020B000520004D2A246A346A846B14603E0A04679
:1020C000A146AA46B3466EA4A44601271F26FFF7E1
:1020D00072FE0137013E212FF9D100BD594684B26D
:1020E0008DB26C43061475430B145E4382B25A439F
:1020F000AD18EA1700D7D2431204B6182A042B0CE5
:1021000012197341404649469D009B17920F2A437E
:10211000904199413E2210E7494684B28DB26C430A
:10212000061475430B145E4382B25A43AD18EA1786
:1021300000D7D2431204B6182A042B0C121973418B
:10214000504659469D009B17920F2A4350415941D2
:102150003E22F2E6BB4DF09DC556F6367D5100009D
:102160001A61140085880A00FB211900F0B5FFF7F9
:102170003BF9404D0C002C4001D0AC4202D1090D7E
:10218000090500201C002C4001D0AC4202D11B0DDF
:102190001B0500220026ED02002B04D502266B4011
:1021A000694000D476424F1904D599420CDD0136BE
:1021B000694003E0BB4207DA013E6B4007001000B4
:1021C0003A000F0019003B0040B4002A0FD1002B49
:1021D0000AD05C006415013409D14C006415013447
:1021E00002D10139013B02E0002000212EE0FFF77F
:1021F00003FD3E22FFF722FE82468B46002000218F
:1022000080460122920791461DA4A44601271F265D
:10221000FFF7CAFD0137013E212FF9D14A46534647
:102220000C3A01246407002752081B0005D493418F
:10223000001979416408F7D104E05341001BB9410A
:102240006408F1D1CE0749104008304340BC002E4D
:102250000AD0094C094D01D5E443ED43F60701D1FD
:1022600000196941001969413D22FFF766FEFFF739
:10227000C1F8F0BD0000F07F8D305A88A8F64332D7
:10228000694FBB610567AC1DB16E4096FCBAAD0FDE
:1022900072DB0BABA66EF50739BD9FE576ABFE038F
:1022A0004B6297BA5BD5FF01D694DBDDAAFAFF003B
:1022B0005DEAEE5655FF7F006E77B7AAEAFF3F0052
:1022C000BCBB5555FDFF1F00DEADAAAAFFFF0F00E6
:1022D0006F5555F5FFFF0700ABAAAAFEFFFF0300ED
:1022E0005555D5FFFFFF0100ABAAFAFFFFFF000025
:1022F0005555FFFFFF7F0000ABEAFFFFFF3F0000E7
:1023000055FDFFFFFF1F0000ABFFFFFFFF0F0000A9
:10231000F5FFFFFFFF070000FFFFFFFFFF030000C7
:1023200000000000000200000000000000010000AA
:1023300000000000800000000000000040000000DD
:10234000000000002000000000000000100000005D
:102350000000000008000000000000000400000071
:10236000000000000200000000000000010000006A
:10237000000000800000000000000040000000009D
:1023800051434343C9188C46110C83B24B4310B4DC
:10239000040C614392B280B2504362431C041B0C94
:1023A000001910BC59411304120CC018514161446A
:1023B000704700004840414048400E4B5B6818475A
:1023C0000C4B1B6818470C4A936F9B0802D2094BB1
:1023D000DB681847F0B5146E556E576F166FFFF730
:1023E000F6FF054A1466556657671667F0BD014B40
:1023F0009B68184768040020000000D0034BDB6F87
:10240000FC4618477CDFA12400100000680400206F
:10241000132310B512481C78FEF72EFE0100012C84
:102420000AD003DD80220F4800F05AF80E48FEF76C
:102430001BFE0E4B186010BD0A4C5422200000F009
:102440004FF80B4B6365A365E36523666366A3667C
:10245000E36623676367A367E3672362E361E5E7F6
:1024600053460000680400204C330000C8050020DB
:102470007524001007B5604601880A0A0230DF2A79
:10248000FAD1C9B2820804D30288408800041043FC
:1024900000E00068014A5050039007BD6804002026
:1024A000C30FDB0741000A0E07D0FF2A08D0090935
:1024B000054A8918194340077047190000207047E2
:1024C0000249C918FAE70000000000380000F07F58
:1024D00001480421014B1847D00100208910001049
:1024E000014B5B6818470000D001002010B50028A0
:1024F00000D110BD00F014F9FBE7C04610B5094A41
:102500000300146884B0002C08D001220091064812
:10251000524203A9A047012004B010BD00F04AF9BF
:102520000020F9E79C050020ED24001000BEFDE727
:1025300010B5FFF7FBFFC04670B5FEF7E3FD074D92
:10254000074EB54209D20024013E761BB60808CDDD
:10255000984723000134B342F9D170BDBC28001064
:10256000C0280010030010B5080011001B68984730
:1025700010BDC046F0B5C64600B5437D07000C004F
:102580001600002B46D0002A17DD0B780A2B24D02A
:1025900000239846012E13D001252900635C0135E4
:1025A0000A2B26D0B542F8D1464509DCA419013CD6
:1025B00023780D3B5A4253413B7580BCB846F0BD71
:1025C0004346E018A419F11A013C3B689847237868
:1025D0000D3B5A4253413B75EFE7037D002BD7D1AA
:1025E00002210F483B689847012EDFD0012398460F
:1025F000D2E7631E5B5C0D2BD4D0884504DA4346DA
:10260000C91AE0183B689847022105483B68A8466C
:102610009847C7E70368110020009847CDE7C046F8
:102620009C290010F0B54546DE464E465746E0B5BB
:1026300083B091461C0080460D00FEF7ADFB0023E1
:10264000304A12184B41002B02DA01222E4B524223
:102650002E4908008A4600F00BF907006B1C03D1D5
:10266000404600F0C5F80500002C27D0284E294B25
:102670001C68002C18D04B46002B21D1264B9946C4
:1026800002E02469002C0FD02368002BF9D04B46C0
:102690001B68002B01D09C42F3D120002A00414648
:1026A000B0472469002CEFD1002F26D1280003B0B9
:1026B000F0BCBB46B246A946A046F0BD174ED6E7D1
:1026C000154B99460A239B4602E02469002CEBD067
:1026D0002368002BF9D04B461B68002B01D0A34286
:1026E000F3D12A0041462000B0476B465A462000ED
:1026F000DA71D91D0122B047E7E7504600F0A8F88B
:10270000D4E7C04640420F00FFFFFF7FE0010020FA
:1027100075250010940500209805002065250010FF
:10272000F0B5CE46474680B583B06B460600DD1D4A
:102730002870FEF731FB0023194A12184B41002B79
:1027400002DA0122174B524217490800884600F06E
:102750008FF8164B81461C68002C14D0144F02E0F1
:102760002469002C0FD02368002BF9D03B68002B84
:1027700001D09C42F4D1200001222900FFF7FAFE8B
:102780002469002CEFD14B46002B05D1300003B05B
:10279000C0BCB946B046F0BD404600F059F8F5E778
:1027A00040420F00FFFFFF7FE00100209405002062
:1027B0009805002070B5040000F01AF8012301000C
:1027C000050001222000FFF72DFF084B1C68002C9C
:1027D00006D06368002B05D098472469002CF8D1F7
:1027E000280070BD2469002CF3D1F9E7940500207E
:1027F00010B583070AD00300032102E001330B4226
:1028000005D01A78002AF9D1181A10BD03001968EA
:102810000C4A0D4C8A188A4322420FD15968094A42
:1028200004338A188A43224208D15968054A04337E
:102830008A188A432242F1D000E001331A78002A34
:10284000FBD1E1E7FFFEFEFE80808080F8B5C04648
:1028500001B40248844601BC604700BF5901002012
:1028600001B40248844601BC604700BF81010020DA
:1028700001B40248844601BC604700BFC10000208B
:102880002D110010591100103D130010D12400101B
:10289000B115001011240010651200107511001000
:1028A00095110010A9110010ED050010B1110010D4
:1028B0006D090010F510001041050010B102001064
:1028C0000A2A2A2A2050414E4943202A2A2A0A004D
:1028D0000A000000486172647761726520616C6172
:1028E000726D20256420616C726561647920636C6F
:1028F00061696D65640000004861726420617373F2
:102900006572740052656C6561736500626F6F7407
:10291000325F77323571303830000000322E322E7F
:10292000300000007069636F000000007270323088
:1029300034305F70776D5F6C656400004A756C20A1
:10294000323820323032360006005250D3F0754211
:102950000429001006005250E182887F0C290010E3
:1029600006005250ABB360531C29001006005250B1
:10297000BBFF3CB62429001006005250861C0302FF
:102980002C290010060052505422A29D3C29001010
:1029900005005250DE65F468E42A00100D0A0000BC
:1029A0004829001054290010602900106C290010DB
:0C29B000782900108429001090290010E4
:1029BC00F0B5C646150000B504001E000268EFF322
:1029CC00108172B61368002BFCD0BFF35F8F042309
:1029DC00E3562268002B2BDBBFF35F8F00201060C7
:1029EC0081F31088D02212061278002752B290463A
:1029FC009A420ED1002080BCB846F0BDBFF35F8F69
:102A0C00176081F310882800310000F035F8002899
:102A1C00F0D12268EFF3108172B61368002BFCD052
:102A2C00BFF35F8F237922687F2BE7D9434602E0FF
:102A3C00D0231B061B682371BFF35F8F0023136029
:102A4C0081F310880120D6E70268EFF3108172B68B
:102A5C001368002BFCD0BFF35F8FFF230371036857
:102A6C00BFF35F8F00221A6081F3108840BF70475C
:102A7C007047C0460000000001B40248844601BC07
:102A8C00604700BF690C001010000000000000003F
:102A9C00000000000000000000000000000000002A
:102AAC00E801002000000000000000000000000011
:102ABC00503300004C3300005433000052330000FC
:102ACC004D5300004D4300005334000043340000CC
:082ADC000000000000000000F2
:04000005100001E9FD
:00000001FF
