:020000041000EA
:1000000000B5324B212058609868022188439860DF
:10001000D860186158612E4B002199600221596106
:100020000121F02299502B49196001219960352056
:1000300000F044F80222904214D00621196600F024
:1000400034F8196E01211966002018661A6600F04E
:100050002CF8196E196E196E052000F02FF8012189
:100060000842F9D1002199601B49196000215960AB
:100070001A491B48016001219960EB211966A021F2
:10008000196600F012F800219960164914480160C1
:100090000121996001BC002800D000471248134993
:1000A000086003C880F30888084703B5996A0420EC
:1000B0000142FBD001200142F8D103BD02B5186610
:1000C0001866FFF7F2FF186E186E02BD00000240BE
:1000D000000000180000070000035F00212200005C
:1000E000F4000018222000A00001001008ED00E03C
:1000F00000000000000000000000000074B24E7A12
:1001000000200420F7010010CB010010CD010010E9
:10011000C9010010C9010010C9010010C901001077
:10012000C9010010C9010010C9010010CF01001061
:10013000C9010010C9010010D1010010D301001045
:10014000C1010010C1010010C1010010C101001067
:10015000C1010010C1010010C1010010C101001057
:10016000C1010010C1010010C1010010C101001047
:10017000C1010010C1010010C1010010C101001037
:10018000C1010010C1010010C1010010C101001027
:10019000C1010010C1010010C1010010C101001017
:1001A000C1010010C1010010C1010010C101001007
:1001B000C1010010C1010010C1010010C1010010F7
:1001C000EFF30580103800BE00BE00BE00BE00BECA
:1001D00000BE00BEF2EB88713819001054190010EF
:1001E0003802001090A31AE71E481F49086006C88D
:1001F00081F3088810471D480068002801D019487D
:10020000F3E70DA40ECC002902D000F012F8F9E7B4
:100210001749184A002000E001C19142FCD116495B
:100220008847164988471649884700BEFDE701C937
:1002300001C29A42FBD3704754190010C00000203D
:10024000E80100207C1A00100000042000000420B7
:100250007C1A001000100420001004200000000090
:10026000704700000000000008ED00E0000000D032
:10027000E8010020D0050020CD140010D5020010A8
:10028000C5140010F8B5C04606480749091A8B1076
:10029000C90FC91810B5491003D0044B002B00D06A
:1002A000984710BDE8010020E80100200000000090
:1002B000054B10B5002B03D00449054800E000BFF2
:1002C000FFF7E2FF10BDC04600000000A0050020BF
:1002D00058180010F0B5C6460421192000B500F0EA
:1002E00035F8FF22144B01251A66144B00241A68B6
:1002F00001239343124A134F134E136007E0013456
:10030000FF2C01DD0025FF24052000F0A3FB3B6846
:1003100020009846FF21604300F08CFF4346000414
:100320005840000C00043060002DE8D1013CEBD5B2
:1003300001250024E8E7C0460000054050000540C4
:10034000501005405C0005405C100540094A8300E0
:100350009A1810B514684022544080322240064C4E
:10036000C000A44663441A60044B9C46604441604C
:1003700010BDC04604C0014004D00140004001400F
:100380000FB400B5084883B001F0DEF9049B002BE0
:1003900007D005A91800019101F07AF8034801F08F
:1003A000D3F9012001F08CF85818001068180010DB
:1003B00070B5EFF3108C72B60D4D2B68002BFCD08E
:1003C000BFF35F8F0724CB08C618C05C01230C4025
:1003D000A3401C000440034207D118433070BFF310
:1003E0005F8F2C608CF3108870BD1000FFF7C8FF82
:1003F0002C0100D0044A1078431CDBB2172B00D923
:10040000102313707047C046980100200021044B50
:10041000044ABFF35F8F02C39342FAD17047C046CC
:10042000000100D0800100D0054B064A1360064A47
:10043000136053609360D36013615361936170479D
:100440008080808000E400E004E400E01F23184086
:100450001E3B8340002905D0C021044A4900535067
:1004600013607047802201498B50FAE700E100E0F9
:1004700070B50D00EFF3108672B60F4A1368002BAB
:10048000FCD0BFF35F8F0D4B10309B6884001B596D
:100490000B4A934203D09D4201D000F0A1FD074BCF
:1004A0009B681D51BFF35F8FBFF35F8F0022024B2C
:1004B0001A6086F3108870BD240100D000ED00E0C2
:1004C000C1010010024B9C466144890001607047E5
:1004D0004000003470B5114C114DAC420FD2FF26D4
:1004E0002368002B0CD0FFF785FF01002000FFF7E9
:1004F000E9FFA680BFF35F8F0834AC42F0D370BD34
:10050000FFF778FF01002000FFF7DCFF2671BFF343
:100510005F8F0834AC42E3D3F1E7C046E00100202E
:10052000E80100200A4B1968EFF3108072B60A68E0
:10053000002AFCD0BFF35F8F1B68BFF35F8F0022E0
:100540001A6080F3108840BF002000217047C04629
:10055000CC050020F0B5DE4657464E464546E0B590
:1005600087B0EFF30583032201251A4095409100DF
:100570008846A946B34B03925C58B34B1D60B34BFE
:1005800004934B46B24843630823E55E002D37DAF7
:10059000A3881BB2002B00DBADE0A379002B00D0B9
:1005A000EEE00823E05E002820DB430062691B18B0
:1005B000DB00D3189E68DD68731C00D111E1A448EC
:1005C00001004144826A0B69B71A9B1A9F4215D3F6
:1005D0000123026A039883401A420FD09C4800F01E
:1005E00047FB8D4202DCCCD18642CAD940BF07B05E
:1005F000F0BCBB46B246A946A046F0BD0E61EDE791
:1006000062696B0092465B19DB009A4453469E6810
:10061000DF6800F02DFB8F42BADC00D103E1002F30
:1006200000DAE8E05246534652691B699346049A41
:10063000934200D1D9E052460821605E52880004FE
:10064000594610439847009001910099019A0B0078
:100650001000134300D1CEE013000A00B61A9F41E8
:10066000002806DB7A4800F003FB009E019F361845
:100670004F4153469E60DF6000229A5E002A00DAF6
:1006800086E7530099186069C900411802938B6886
:10069000C9689B46B94200DD7AE702D1B34200D96E
:1006A00076E708239C46A444059565462281A44626
:1006B000029B2C0006E053009918C90041188D6870
:1006C000C968AB469B18DB00C318B94206DC00D1F1
:1006D000B3E01C000023E25E002AECDA230064464B
:1006E0009C4653461A806346059D1D80A3881BB215
:1006F000002B00DA51E72269EFF3108172B613681C
:10070000002BFCD0BFF35F8F0123A7885B42A3803F
:100710003FB22369BFF35F8F00221A6081F3108814
:10072000002F00DA39E72300083322009A46666971
:100730007B00DB19DB00F318996850468C460824CF
:10074000115FDD68002910DB029306E0AB4244D064
:100750000023E15E2000002906DB4C006418E40061
:100760003419E368AB42F1DD029B078000201F5E75
:100770001980002FDCDA1400A379002B00D110E7D8
:100780000023A37126000823E15E08364B1C00D12C
:100790002CE70800A246656902E03E004B1C1AD017
:1007A0004B005B18DB00EF180A008C46E95E7B8883
:1007B0001BB2002BF1DA01235B42DC17BB60FC604B
:1007C000824205D0534631801B893B8053461A81B3
:1007D00060464B1CE4D15446E5E6A3686345B7D9AF
:1007E000C2E76B1C00D0EAE6F8E65B4658461B6998
:1007F000984700281BD153461B8822692381EFF3B9
:10080000108372B611680029FCD0BFF35F8F514688
:1008100062880A8022696580BFF35F8F00211160C2
:1008200083F31088B4E6864200D8F8E6B0E65B466B
:100830001A685B680092019307E7B34500D848E760
:100840004CE7C046B80500203C7005405505001037
:100850000040054070B52E4C2569002D04D00A21BA
:100860002C48FFF72FFE70BD2B4E0321300000F007
:10087000F5F9E660FFF7BEFD284B03229C46D02326
:1008800022701B061B6801216370254B6044A36026
:100890000F23800020610220638063694942A180A8
:1008A00019800231198647311D83585218315A5226
:1008B00075325C399952183201319952183201312E
:1008C0009952183201319952083518329D5202312D
:1008D0001832995218320131995218320131995215
:1008E00018320131995218320131995218320131BE
:1008F00099520C4B0C49DC6001303562FFF7B8FDB2
:1009000001210320FFF7A2FD084B1D60A7E7C046A9
:100910009C010020CC050020004005404000003430
:10092000FFFF1000B8050020550500103860054095
:1009300070B501000469EFF3108C72B620680028CE
:10094000FCD0BFF35F8F02200D5E4C696800401938
:10095000C00024180869002D36DB26884E80BFF3BE
:100960005F8F002606608CF31088E360638804982C
:10097000013320615B0405985B0CA26060611A1C66
:10098000002B1FD093B22804628018430A69EFF34A
:10099000108C72B61368002BFCD0BFF35F8F8B886E
:1009A00023808D800B69BFF35F8F00221A608CF368
:1009B00010880B7801329A40CB6808498C46634412
:1009C0001A6070BD0122DDE7BFF35F8F0023036073
:1009D0008CF3108801204042F3E7C0463C20000021
:1009E00010B543890A1493421ADD53009B184269DB
:1009F000DB00D3180469EFF3108C72B62268002A6A
:100A0000FCD0BFF35F8F5A88090494B2090C8A4264
:100A100008D00369BFF35F8F00221A608CF310883F
:100A2000002010BD8022120214435C800123026961
:100A30008371BFF35F8F002111608CF3108804492C
:100A400002788C469340C268012062441360E8E754
:100A50003C200000F0B5C64600B582B0040000F0AE
:100A60000FF9FA2206000F00200000230021920057
:100A700000F096FC8019794104000D1E02DA012471
:100A80002E4D644206267642F71736196F41AF4263
:100A900014D811D000F0F4F832003B00121A8B4148
:100AA000002B15DC002B46D02000290000F0F2F8C6
:100AB00002B080BCB846F0BDA642EBD900260027A4
:100AC00000F0DEF832003B00121A8B41002BE9DD0A
:100AD00000F0D6F832003B00121A8B41002B0ADBE3
:100AE00000230193164B3200009316483B00FFF79A
:100AF0001FFF0130D8D000233900B0469C46124A6F
:100B00001248536A994204D8966A4645CCD2994213
:100B1000CAD10668EFF3108772B63368002BFCD099
:100B2000BFF35F8F0368BFF35F8F66461E6087F376
:100B3000108820BFE5E7002AB6D0C9E7FFFFFF7F96
:100B4000250500109C01002000400540CC05002038
:100B5000F0B557464E46DE464546E0B506000F0066
:100B600085B0EFF3058399468B46002B12D03849A8
:100B700000204B6ABB4206D38A6ADB1B591E8B419D
:100B8000B2424041184305B0F0BCBB46B246A9464C
:100B9000A046F0BD2F4B9A46DB68984653461B781B
:100BA0004046039300F064F84246039B040004337C
:100BB0009B009B580D001B1A39003000001BA941F7
:100BC000894510DC0DD020BF214A0020536A5B45C7
:100BD000D9D3926ADB1B591E8B41B2424041184364
:100BE000D1E78342EFD900F04BF832003B00121AF4
:100BF0008B41002B1ADB00230193174B320000932B
:100C000050463B00FFF794FE011E0FDD104B5A6A61
:100C10005A451BD39B6AB34216D35046FFF7E0FEFA
:100C20000B4A0020536A5B45ADD3D2E7084A002047
:100C3000536A5B45A7D30020926ADB1BB242404156
:100C40005A1E934118439EE75A45E6D120BFE4E778
:100C5000004005409C0100202505001010B5024A07
:100C60000248FFF7A5FB10BD6C18001068050020B6
:100C70000300416A0A00986A596A8A42FAD17047A9
:100C8000034B596A0A00986A596A9142FAD170472F
:100C900000400540064A536A9942FCD807D1044BEC
:100CA00002E05A6A914202D19A6A9042F9D870479A
:100CB00000400540F8B5DE464E4657464546E0B58D
:100CC0008B4605000A991800160000F0DBFA0A9B13
:100CD0006C001F02324B64199C46A4006444636894
:100CE00081469F4200D967602B1FDBB29846012BDB
:100CF00030D9C02380229B01E31812011A60294BCE
:100D0000AD0059599A4600291BD17301E02622688B
:100D100053401E40802342465B01E3181E60012AB7
:100D200030D9802380229B01E31812011A605346B8
:100D30004A4667605A51F0BCBB46B246A946A04637
:100D4000F8BD586900F09EFA013043001B18033BC0
:100D5000FDD2DAE75B46012BCBD1C02303229B01F6
:100D6000E3181A60023AA3681A42FCD07301E02625
:100D70002268AD0053401E4080230A4A5B01924620
:100D8000E3181E605A462168514003220A401A6047
:100D900001225B469A40A3681A42FCD0C1E7C046D4
:100DA000008000406C050020F0B546464F46D64610
:100DB000C0B51F00344B44009C462418A400644472
:100DC000636888461600FF2B02D880235B006360AF
:100DD000031FDBB29A46012B30D9C02380229B012E
:100DE000E31812011A60294B8500595999460029C8
:100DF0001BD17301E026226853401E4080235246D7
:100E00005B01E3181E60012A30D9802380229B01F8
:100E1000E31812011A6080235B0063604B465F5148
:100E2000E0BCBA46B146A846F0BD586900F02AFABF
:100E3000013043001B18033BFDD2DAE74346012B88
:100E4000CBD1C02303229B01E3181A60023AA368A6
:100E50001A42FCD07301E0262268850053401E40F0
:100E600080230A4A5B019146E3181E6042462168CE
:100E7000514003220A401A60012342469340A2686F
:100E80001342FCD0C1E7C046008000406C05002042
:100E9000014B8000C05870476C050020F8B5040075
:100EA00021481E0017000D0000F0ECF90100380089
:100EB00000F0E8F9069B36041B031E432368002B51
:100EC00020DB1A4B1A49E3185A1E934180229201E3
:100ED00094465B421B0B174A1B0363441360164A7C
:100EE00013601F000A689743FBD1144B2560E2187A
:100EF0002123A06013602368002BFCDA0823E6603E
:100F00001360F8BD3F2322681340AB42D9D1A368D8
:100F10001B051B0D8342D4D1EE22E368D20213409D
:100F2000B342CED1EDE7C046001BB7000040FDBF85
:100F300008C0004000E0004000F000400430000025
:100F40008023024A9B000B43D36270470080054018
:100F5000002310B50100988A1B8B984710BDC0462E
:100F6000162310B50100188802331B88984710BD5E
:100F7000F8B54746CE4680B50F1E18D014239946C3
:100F8000043304000025012698464B461888434642
:100F900021681B88984701C4431E984101350640CB
:100FA000AF42F2D13000C0BCB946B046F8BD012610
:100FB000F8E7C046AA23064A1B0113608D235B0095
:100FC000D3600449044B19605368002BFCDA704766
:100FD0000040024000B0FA00006002407047C04686
:100FE00010B50148FFF7CCF99018001070B5074D07
:100FF000074EB54209D20024013E761BB60808CD43
:10100000984723000134B342F9D170BD181800107D
:1010100054180010054B064A06491A60064A074B49
:101020001A6010000B689843FBD1704700E0004045
:10103000BFCDFBFE08C00040FE7F3C0000F000403A
:10104000044BDB6C002B03D18022034BD2021A60CD
:101050007047C046000011504C201150044A054B07
:101060001A60054A1368DB018033FBD17047C04624
:10107000FFFFFF0100F0004008C000404022034B8A
:101080009A675A671A67DA667047C04600F00140EF
:1010900010B5FFF7BBF910BDF8B52749274C284D0F
:1010A000641AA6103200302E00D930222800920097
:1010B00000F0E0F9BC2C3BD830202F232C1964071A
:1010C000204A801BE40F9B1B052B16D93700002CF0
:1010D00002D0B300771CEA50001B33199B00410873
:1010E000EB18C900C9181A605A6008339942FAD13E
:1010F000012303421CD09843C619B300EA50731C65
:101100002F2E15D09B00EA50B31C2E2E10D09B0022
:10111000EA50F31C2D2E0BD09B00EA50331D2C2ED1
:1011200006D09B00EA50731D2B2E01D09B00EA5085
:10113000054B9D60F8BDC04600010010C0010010C5
:1011400000000020C101001000ED00E0002310B5F8
:10115000294C82B0A367FFF72DFF0122274B1A60AD
:10116000636C012BFCD10322254B1A60224A936B3E
:10117000012BFCD1013300930121224A2248043380
:10118000FFF78CFE052301210093204A2048FFF73A
:1011900085FE0022022104201E4BFFF705FE0022DF
:1011A000012105201C4BFFF7FFFD00220021072035
:1011B0001A4BFFF7F9FD002200210820174BFFF71B
:1011C000F3FD8023DB000093002200210920134B54
:1011D000FFF770FD0022104B00210620FFF7E4FD11
:1011E0000420FFF755FE0E4900F04CF801000020E6
:1011F000FFF7A6FE02B010BD008000403CB00040EA
:1012000030B00040002F685900800240008C8647B3
:1012100000C00240001BB70040597307006CDC029D
:1012200040420F0001480421014B1847C001002033
:10123000710F0010124A936F9B0815D29066D16609
:10124000002905D0FFE7FFE7FFE7516F106F7047F8
:1012500004B580210906C2175140002800D0C843B8
:1012600000F0CAFA002104BDF0B5146E556E576F38
:10127000166FFFF7E3FF1466556657671667F0BDF4
:10128000000000D0114A936F9B0813D2106651667C
:10129000002905D0FFE7FFE7FFE7516F106F7047A8
:1012A00004B5002801D00020C04300F0A5FA0021B9
:1012B00004BDC046F0B5146E556E576F166FFFF73C
:1012C000E5FF1466556657671667F0BD000000D04D
:1012D000132370B51D78012D19D014DD1F48FFF7B9
:1012E0003FFE06001E48FFF73BFE1E4C80223100E9
:1012F000200000F0BFF8022D2DD01B48FFF728FE7C
:101300001A4B186070BD1A4B164CA364F5E7184BC6
:10131000144C23606360A360E36023616361A36195
:10132000E36123626362A362E36223636363A36393
:10133000E36323646364A364E36423656365A36573
:10134000E36523666366A366E36623676367A36753
:10135000E367A364D1E7064BA364CEE753440000E0
:1013600053460000680300204C330000C8050020ED
:101370007513001007B5604601880A0A0230DF2A9B
:10138000FAD1C9B2820804D302884088000410430D
:1013900000E00068014A5050039007BD6803002038
:1013A00051434343C9188C46110C83B24B4310B4CC
:1013B000040C614392B280B2504362431C041B0C84
:1013C000001910BC59411304120CC018514161445A
:1013D00070470000132310B512481C78FFF7C0FDBA
:1013E0000100012C0AD003DD80220F4800F042F8F2
:1013F0000E48FFF7ADFD0E4B186010BD0A4C54228D
:10140000200000F037F80B4B6365A365E3652366A6
:101410006366A366E36623676367A367E367236284
:10142000E361E5E753460000680400204C33000008
:10143000C80500203914001007B5604601880A0A63
:101440000230DF2AFAD1C9B2820804D30288408868
:101450000004104300E00068014A5050039007BDAB
:101460006804002001480421014B1847D0010020E6
:10147000710F0010014B5B6818470000D00100207D
:1014800010B5002800D110BD00F014F9FBE7C046EC
:1014900010B5094A0300146884B0002C08D001225A
:1014A00000910648524203A9A047012004B010BD94
:1014B00000F04AF90020F9E79C0500208114001093
:1014C00000BEFDE710B5FFF7FBFFC04670B5FFF7A4
:1014D0008DFD074D074EB54209D20024013E761B13
:1014E000B60808CD984723000134B342F9D170BD46
:1014F0005418001058180010030010B5080011000F
:101500001B68984710BDC046F0B5C64600B5437D80
:1015100007000C001600002B46D0002A17DD0B78C0
:101520000A2B24D000239846012E13D00125290030
:10153000635C01350A2B26D0B542F8D1464509DC5B
:10154000A419013C23780D3B5A4253413B7580BCA2
:10155000B846F0BD4346E018A419F11A013C3B68B7
:10156000984723780D3B5A4253413B75EFE7037D83
:10157000002BD7D102210F483B689847012EDFD0BE
:1015800001239846D2E7631E5B5C0D2BD4D08845BF
:1015900004DA4346C91AE0183B6898470221054817
:1015A0003B68A8469847C7E70368110020009847A2
:1015B000CDE7C04634190010F0B54546DE464E462C
:1015C0005746E0B583B091461C0080460D00FFF7FA
:1015D00057FB0023304A12184B41002B02DA01223C
:1015E0002E4B52422E4908008A4600F00DF90700A2
:1015F0006B1C03D1404600F0C5F80500002C27D035
:10160000284E294B1C68002C18D04B46002B21D1AA
:10161000264B994602E02469002C0FD02368002B4A
:10162000F9D04B461B68002B01D09C42F3D120001F
:101630002A004146B0472469002CEFD1002F26D163
:10164000280003B0F0BCBB46B246A946A046F0BD98
:10165000174ED6E7154B99460A239B4602E02469AC
:10166000002CEBD02368002BF9D04B461B68002BD5
:1016700001D0A342F3D12A0041462000B0476B4677
:101680005A462000DA71D91D0122B047E7E75046DB
:1016900000F0AAF8D4E7C04640420F00FFFFFF7FEA
:1016A000E001002009150010940500209805002095
:1016B000F9140010F0B5CE46474680B583B06B46AE
:1016C0000600DD1D2870FFF7DBFA0023194A121807
:1016D0004B41002B02DA0122174B524217490800F6
:1016E000884600F091F8164B81461C68002C14D0F7
:1016F000144F02E02469002C0FD02368002BF9D08E
:101700003B68002B01D09C42F4D12000012229002B
:10171000FFF7FAFE2469002CEFD14B46002B05D1D0
:10172000300003B0C0BCB946B046F0BD404600F042
:101730005BF8F5E740420F00FFFFFF7FE00100206C
:10174000940500209805002070B5040000F01AF8F8
:1017500001230100050001222000FFF72DFF084BA7
:101760001C68002C06D06368002B05D098472469BC
:10177000002CF8D1280070BD2469002CF3D1F9E7C2
:101780009405002010B583070AD00300032102E06E
:1017900001330B4205D01A78002AF9D1181A10BD6E
:1017A000030019680C4A0D4C8A188A4322420FD153
:1017B0005968094A04338A188A43224208D1596871
:1017C000054A04338A188A432242F1D000E00133EB
:1017D0001A78002AFBD1E1E7FFFEFEFE80808080C0
:1017E000F8B5C0460000000001B40248844601BCC0
:1017F000604700BF5901002001B40248844601BC83
:10180000604700BF8101002001B40248844601BC4A
:10181000604700BFC10000201510001041100010EB
:101820002512001065140010D1120010D5130010FD
:101830004D1100105D1000107D100010911000106F
:10184000D50400109910001055080010DD0F00108D
:0818500029040010B102001090
:101858000A2A2A2A2050414E4943202A2A2A0A00C5
:101868000A000000486172647761726520616C61EA
:10187800726D20256420616C726561647920636CE7
:1018880061696D656400000048617264206173736A
:101898006572740052656C6561736500626F6F7480
:1018A800325F77323571303830000000322E322EF8
:1018B800300000007069636F000000007270323001
:1018C80034305F70776D5F6C656400004A756C201A
:1018D800323720323032360006005250D3F075428B
:1018E8009C18001006005250E182887FA41800104E
:1018F80006005250ABB36053B418001006005250A3
:10190800BBFF3CB6BC18001006005250861C0302F0
:10191800C4180010060052505422A29DD41800107A
:1019280005005250DE65F4687C1A00100D0A0000AC
:10193800E0180010EC180010F81800100419001036
:0C194800101900101C19001028190010C4
:10195400F0B5C646150000B504001E000268EFF39A
:10196400108172B61368002BFCD0BFF35F8F042381
:10197400E3562268002B2BDBBFF35F8F002010603F
:1019840081F31088D02212061278002752B29046B2
:101994009A420ED1002080BCB846F0BDBFF35F8FE1
:1019A400176081F310882800310000F035F8002812
:1019B400F0D12268EFF3108172B61368002BFCD0CB
:1019C400BFF35F8F237922687F2BE7D9434602E078
:1019D400D0231B061B682371BFF35F8F00231360A2
:1019E40081F310880120D6E70268EFF3108172B604
:1019F4001368002BFCD0BFF35F8FFF2303710368D0
:101A0400BFF35F8F00221A6081F3108840BF7047D4
:101A14007047C0460000000001B40248844601BC7F
:101A2400604700BF510B00101000000000000000D0
:101A340000000000000000000000000000000000A2
:101A4400E801002000000000000000000000000089
:101A5400503300004C330000543300005233000074
:101A64004D5300004D430000533400004334000044
:081A740000000000000000006A
:04000005100001E9FD
:00000001FF
